{
	"VulnerableStorageContract.sol": {
		"VulnerableContract": {
			"abi": [
				{
					"inputs": [
						{
							"internalType": "contract Lib",
							"name": "_lib",
							"type": "address"
						}
					],
					"stateMutability": "nonpayable",
					"type": "constructor"
				},
				{
					"stateMutability": "payable",
					"type": "fallback"
				},
				{
					"inputs": [],
					"name": "lib",
					"outputs": [
						{
							"internalType": "contract Lib",
							"name": "",
							"type": "address"
						}
					],
					"stateMutability": "view",
					"type": "function"
				},
				{
					"inputs": [],
					"name": "owner",
					"outputs": [
						{
							"internalType": "address",
							"name": "",
							"type": "address"
						}
					],
					"stateMutability": "view",
					"type": "function"
				}
			],
			"devdoc": {
				"details": "Contract that is vulnerable to delegatecall allowing an attacker contract to take ownership",
				"kind": "dev",
				"methods": {},
				"title": "VulnerableContract",
				"version": 1
			},
			"evm": {
				"assembly": "    /* \"VulnerableStorageContract.sol\":427:838  contract VulnerableContract {... */\n  mstore(0x40, 0x80)\n    /* \"VulnerableStorageContract.sol\":508:590  constructor(Lib _lib) {... */\n  callvalue\n  dup1\n  iszero\n  tag_1\n  jumpi\n  0x00\n  dup1\n  revert\ntag_1:\n  pop\n  mload(0x40)\n  sub(codesize, bytecodeSize)\n  dup1\n  bytecodeSize\n  dup4\n  codecopy\n  dup2\n  dup2\n  add\n  0x40\n  mstore\n  dup2\n  add\n  swap1\n  tag_2\n  swap2\n  swap1\n  tag_3\n  jump\t// in\ntag_2:\n    /* \"VulnerableStorageContract.sol\":548:558  msg.sender */\n  caller\n    /* \"VulnerableStorageContract.sol\":540:545  owner */\n  0x00\n  dup1\n    /* \"VulnerableStorageContract.sol\":540:558  owner = msg.sender */\n  0x0100\n  exp\n  dup2\n  sload\n  dup2\n  0xffffffffffffffffffffffffffffffffffffffff\n  mul\n  not\n  and\n  swap1\n  dup4\n  0xffffffffffffffffffffffffffffffffffffffff\n  and\n  mul\n  or\n  swap1\n  sstore\n  pop\n    /* \"VulnerableStorageContract.sol\":578:582  _lib */\n  dup1\n    /* \"VulnerableStorageContract.sol\":568:571  lib */\n  0x01\n  0x00\n    /* \"VulnerableStorageContract.sol\":568:583  lib = Lib(_lib) */\n  0x0100\n  exp\n  dup2\n  sload\n  dup2\n  0xffffffffffffffffffffffffffffffffffffffff\n  mul\n  not\n  and\n  swap1\n  dup4\n  0xffffffffffffffffffffffffffffffffffffffff\n  and\n  mul\n  or\n  swap1\n  sstore\n  pop\n    /* \"VulnerableStorageContract.sol\":508:590  constructor(Lib _lib) {... */\n  pop\n    /* \"VulnerableStorageContract.sol\":427:838  contract VulnerableContract {... */\n  jump(tag_6)\n    /* \"#utility.yul\":88:205   */\ntag_8:\n    /* \"#utility.yul\":197:198   */\n  0x00\n    /* \"#utility.yul\":194:195   */\n  dup1\n    /* \"#utility.yul\":187:199   */\n  revert\n    /* \"#utility.yul\":334:460   */\ntag_10:\n    /* \"#utility.yul\":371:378   */\n  0x00\n    /* \"#utility.yul\":411:453   */\n  0xffffffffffffffffffffffffffffffffffffffff\n    /* \"#utility.yul\":404:409   */\n  dup3\n    /* \"#utility.yul\":400:454   */\n  and\n    /* \"#utility.yul\":389:454   */\n  swap1\n  pop\n    /* \"#utility.yul\":334:460   */\n  swap2\n  swap1\n  pop\n  jump\t// out\n    /* \"#utility.yul\":466:562   */\ntag_11:\n    /* \"#utility.yul\":503:510   */\n  0x00\n    /* \"#utility.yul\":532:556   */\n  tag_21\n    /* \"#utility.yul\":550:555   */\n  dup3\n    /* \"#utility.yul\":532:556   */\n  tag_10\n  jump\t// in\ntag_21:\n    /* \"#utility.yul\":521:556   */\n  swap1\n  pop\n    /* \"#utility.yul\":466:562   */\n  swap2\n  swap1\n  pop\n  jump\t// out\n    /* \"#utility.yul\":568:674   */\ntag_12:\n    /* \"#utility.yul\":615:622   */\n  0x00\n    /* \"#utility.yul\":644:668   */\n  tag_23\n    /* \"#utility.yul\":662:667   */\n  dup3\n    /* \"#utility.yul\":644:668   */\n  tag_11\n  jump\t// in\ntag_23:\n    /* \"#utility.yul\":633:668   */\n  swap1\n  pop\n    /* \"#utility.yul\":568:674   */\n  swap2\n  swap1\n  pop\n  jump\t// out\n    /* \"#utility.yul\":680:822   */\ntag_13:\n    /* \"#utility.yul\":763:797   */\n  tag_25\n    /* \"#utility.yul\":791:796   */\n  dup2\n    /* \"#utility.yul\":763:797   */\n  tag_12\n  jump\t// in\ntag_25:\n    /* \"#utility.yul\":756:761   */\n  dup2\n    /* \"#utility.yul\":753:798   */\n  eq\n    /* \"#utility.yul\":743:816   */\n  tag_26\n  jumpi\n    /* \"#utility.yul\":812:813   */\n  0x00\n    /* \"#utility.yul\":809:810   */\n  dup1\n    /* \"#utility.yul\":802:814   */\n  revert\n    /* \"#utility.yul\":743:816   */\ntag_26:\n    /* \"#utility.yul\":680:822   */\n  pop\n  jump\t// out\n    /* \"#utility.yul\":828:991   */\ntag_14:\n    /* \"#utility.yul\":895:900   */\n  0x00\n    /* \"#utility.yul\":926:932   */\n  dup2\n    /* \"#utility.yul\":920:933   */\n  mload\n    /* \"#utility.yul\":911:933   */\n  swap1\n  pop\n    /* \"#utility.yul\":942:985   */\n  tag_28\n    /* \"#utility.yul\":979:984   */\n  dup2\n    /* \"#utility.yul\":942:985   */\n  tag_13\n  jump\t// in\ntag_28:\n    /* \"#utility.yul\":828:991   */\n  swap3\n  swap2\n  pop\n  pop\n  jump\t// out\n    /* \"#utility.yul\":997:1368   */\ntag_3:\n    /* \"#utility.yul\":1077:1083   */\n  0x00\n    /* \"#utility.yul\":1126:1128   */\n  0x20\n    /* \"#utility.yul\":1114:1123   */\n  dup3\n    /* \"#utility.yul\":1105:1112   */\n  dup5\n    /* \"#utility.yul\":1101:1124   */\n  sub\n    /* \"#utility.yul\":1097:1129   */\n  slt\n    /* \"#utility.yul\":1094:1213   */\n  iszero\n  tag_30\n  jumpi\n    /* \"#utility.yul\":1132:1211   */\n  tag_31\n  tag_8\n  jump\t// in\ntag_31:\n    /* \"#utility.yul\":1094:1213   */\ntag_30:\n    /* \"#utility.yul\":1252:1253   */\n  0x00\n    /* \"#utility.yul\":1277:1351   */\n  tag_32\n    /* \"#utility.yul\":1343:1350   */\n  dup5\n    /* \"#utility.yul\":1334:1340   */\n  dup3\n    /* \"#utility.yul\":1323:1332   */\n  dup6\n    /* \"#utility.yul\":1319:1341   */\n  add\n    /* \"#utility.yul\":1277:1351   */\n  tag_14\n  jump\t// in\ntag_32:\n    /* \"#utility.yul\":1267:1351   */\n  swap2\n  pop\n    /* \"#utility.yul\":1223:1361   */\n  pop\n    /* \"#utility.yul\":997:1368   */\n  swap3\n  swap2\n  pop\n  pop\n  jump\t// out\n    /* \"VulnerableStorageContract.sol\":427:838  contract VulnerableContract {... */\ntag_6:\n  dataSize(sub_0)\n  dup1\n  dataOffset(sub_0)\n  0x00\n  codecopy\n  0x00\n  return\nstop\n\nsub_0: assembly {\n        /* \"VulnerableStorageContract.sol\":427:838  contract VulnerableContract {... */\n      mstore(0x40, 0x80)\n      jumpi(tag_1, lt(calldatasize, 0x04))\n      shr(0xe0, calldataload(0x00))\n      dup1\n      0x8da5cb5b\n      eq\n      tag_3\n      jumpi\n      dup1\n      0x92801230\n      eq\n      tag_4\n      jumpi\n      jump(tag_2)\n    tag_1:\n    tag_2:\n        /* \"VulnerableStorageContract.sol\":733:744  bool result */\n      0x00\n        /* \"VulnerableStorageContract.sol\":758:761  lib */\n      0x01\n      0x00\n      swap1\n      sload\n      swap1\n      0x0100\n      exp\n      swap1\n      div\n      0xffffffffffffffffffffffffffffffffffffffff\n      and\n        /* \"VulnerableStorageContract.sol\":750:775  address(lib).delegatecall */\n      0xffffffffffffffffffffffffffffffffffffffff\n      and\n        /* \"VulnerableStorageContract.sol\":776:784  msg.data */\n      0x00\n      calldatasize\n        /* \"VulnerableStorageContract.sol\":750:785  address(lib).delegatecall(msg.data) */\n      mload(0x40)\n      tag_7\n      swap3\n      swap2\n      swap1\n      tag_8\n      jump\t// in\n    tag_7:\n      0x00\n      mload(0x40)\n      dup1\n      dup4\n      sub\n      dup2\n      dup6\n      gas\n      delegatecall\n      swap2\n      pop\n      pop\n      returndatasize\n      dup1\n      0x00\n      dup2\n      eq\n      tag_11\n      jumpi\n      mload(0x40)\n      swap2\n      pop\n      and(add(returndatasize, 0x3f), not(0x1f))\n      dup3\n      add\n      0x40\n      mstore\n      returndatasize\n      dup3\n      mstore\n      returndatasize\n      0x00\n      0x20\n      dup5\n      add\n      returndatacopy\n      jump(tag_10)\n    tag_11:\n      0x60\n      swap2\n      pop\n    tag_10:\n      pop\n        /* \"VulnerableStorageContract.sol\":732:785  (bool result, ) = address(lib).delegatecall(msg.data) */\n      pop\n      swap1\n      pop\n        /* \"VulnerableStorageContract.sol\":803:809  result */\n      dup1\n        /* \"VulnerableStorageContract.sol\":795:829  require(result, \"Lib call failed\") */\n      tag_12\n      jumpi\n      mload(0x40)\n      0x08c379a000000000000000000000000000000000000000000000000000000000\n      dup2\n      mstore\n      0x04\n      add\n      tag_13\n      swap1\n      tag_14\n      jump\t// in\n    tag_13:\n      mload(0x40)\n      dup1\n      swap2\n      sub\n      swap1\n      revert\n    tag_12:\n        /* \"VulnerableStorageContract.sol\":624:836  {... */\n      stop\n        /* \"VulnerableStorageContract.sol\":461:481  address public owner */\n    tag_3:\n      callvalue\n      dup1\n      iszero\n      tag_15\n      jumpi\n      0x00\n      dup1\n      revert\n    tag_15:\n      pop\n      tag_16\n      tag_17\n      jump\t// in\n    tag_16:\n      mload(0x40)\n      tag_18\n      swap2\n      swap1\n      tag_19\n      jump\t// in\n    tag_18:\n      mload(0x40)\n      dup1\n      swap2\n      sub\n      swap1\n      return\n        /* \"VulnerableStorageContract.sol\":487:501  Lib public lib */\n    tag_4:\n      callvalue\n      dup1\n      iszero\n      tag_20\n      jumpi\n      0x00\n      dup1\n      revert\n    tag_20:\n      pop\n      tag_21\n      tag_22\n      jump\t// in\n    tag_21:\n      mload(0x40)\n      tag_23\n      swap2\n      swap1\n      tag_24\n      jump\t// in\n    tag_23:\n      mload(0x40)\n      dup1\n      swap2\n      sub\n      swap1\n      return\n        /* \"VulnerableStorageContract.sol\":461:481  address public owner */\n    tag_17:\n      0x00\n      dup1\n      sload\n      swap1\n      0x0100\n      exp\n      swap1\n      div\n      0xffffffffffffffffffffffffffffffffffffffff\n      and\n      dup2\n      jump\t// out\n        /* \"VulnerableStorageContract.sol\":487:501  Lib public lib */\n    tag_22:\n      0x01\n      0x00\n      swap1\n      sload\n      swap1\n      0x0100\n      exp\n      swap1\n      div\n      0xffffffffffffffffffffffffffffffffffffffff\n      and\n      dup2\n      jump\t// out\n        /* \"#utility.yul\":7:154   */\n    tag_25:\n        /* \"#utility.yul\":108:119   */\n      0x00\n        /* \"#utility.yul\":145:148   */\n      dup2\n        /* \"#utility.yul\":130:148   */\n      swap1\n      pop\n        /* \"#utility.yul\":7:154   */\n      swap3\n      swap2\n      pop\n      pop\n      jump\t// out\n        /* \"#utility.yul\":160:306   */\n    tag_26:\n        /* \"#utility.yul\":257:263   */\n      dup3\n        /* \"#utility.yul\":252:255   */\n      dup2\n        /* \"#utility.yul\":247:250   */\n      dup4\n        /* \"#utility.yul\":234:264   */\n      calldatacopy\n        /* \"#utility.yul\":298:299   */\n      0x00\n        /* \"#utility.yul\":289:295   */\n      dup4\n        /* \"#utility.yul\":284:287   */\n      dup4\n        /* \"#utility.yul\":280:296   */\n      add\n        /* \"#utility.yul\":273:300   */\n      mstore\n        /* \"#utility.yul\":160:306   */\n      pop\n      pop\n      pop\n      jump\t// out\n        /* \"#utility.yul\":334:661   */\n    tag_27:\n        /* \"#utility.yul\":448:451   */\n      0x00\n        /* \"#utility.yul\":469:557   */\n      tag_43\n        /* \"#utility.yul\":550:556   */\n      dup4\n        /* \"#utility.yul\":545:548   */\n      dup6\n        /* \"#utility.yul\":469:557   */\n      tag_25\n      jump\t// in\n    tag_43:\n        /* \"#utility.yul\":462:557   */\n      swap4\n      pop\n        /* \"#utility.yul\":567:623   */\n      tag_44\n        /* \"#utility.yul\":616:622   */\n      dup4\n        /* \"#utility.yul\":611:614   */\n      dup6\n        /* \"#utility.yul\":604:609   */\n      dup5\n        /* \"#utility.yul\":567:623   */\n      tag_26\n      jump\t// in\n    tag_44:\n        /* \"#utility.yul\":648:654   */\n      dup3\n        /* \"#utility.yul\":643:646   */\n      dup5\n        /* \"#utility.yul\":639:655   */\n      add\n        /* \"#utility.yul\":632:655   */\n      swap1\n      pop\n        /* \"#utility.yul\":334:661   */\n      swap4\n      swap3\n      pop\n      pop\n      pop\n      jump\t// out\n        /* \"#utility.yul\":667:958   */\n    tag_8:\n        /* \"#utility.yul\":807:810   */\n      0x00\n        /* \"#utility.yul\":829:932   */\n      tag_46\n        /* \"#utility.yul\":928:931   */\n      dup3\n        /* \"#utility.yul\":919:925   */\n      dup5\n        /* \"#utility.yul\":911:917   */\n      dup7\n        /* \"#utility.yul\":829:932   */\n      tag_27\n      jump\t// in\n    tag_46:\n        /* \"#utility.yul\":822:932   */\n      swap2\n      pop\n        /* \"#utility.yul\":949:952   */\n      dup2\n        /* \"#utility.yul\":942:952   */\n      swap1\n      pop\n        /* \"#utility.yul\":667:958   */\n      swap4\n      swap3\n      pop\n      pop\n      pop\n      jump\t// out\n        /* \"#utility.yul\":964:1133   */\n    tag_28:\n        /* \"#utility.yul\":1048:1059   */\n      0x00\n        /* \"#utility.yul\":1082:1088   */\n      dup3\n        /* \"#utility.yul\":1077:1080   */\n      dup3\n        /* \"#utility.yul\":1070:1089   */\n      mstore\n        /* \"#utility.yul\":1122:1126   */\n      0x20\n        /* \"#utility.yul\":1117:1120   */\n      dup3\n        /* \"#utility.yul\":1113:1127   */\n      add\n        /* \"#utility.yul\":1098:1127   */\n      swap1\n      pop\n        /* \"#utility.yul\":964:1133   */\n      swap3\n      swap2\n      pop\n      pop\n      jump\t// out\n        /* \"#utility.yul\":1139:1304   */\n    tag_29:\n        /* \"#utility.yul\":1279:1296   */\n      0x4c69622063616c6c206661696c65640000000000000000000000000000000000\n        /* \"#utility.yul\":1275:1276   */\n      0x00\n        /* \"#utility.yul\":1267:1273   */\n      dup3\n        /* \"#utility.yul\":1263:1277   */\n      add\n        /* \"#utility.yul\":1256:1297   */\n      mstore\n        /* \"#utility.yul\":1139:1304   */\n      pop\n      jump\t// out\n        /* \"#utility.yul\":1310:1676   */\n    tag_30:\n        /* \"#utility.yul\":1452:1455   */\n      0x00\n        /* \"#utility.yul\":1473:1540   */\n      tag_50\n        /* \"#utility.yul\":1537:1539   */\n      0x0f\n        /* \"#utility.yul\":1532:1535   */\n      dup4\n        /* \"#utility.yul\":1473:1540   */\n      tag_28\n      jump\t// in\n    tag_50:\n        /* \"#utility.yul\":1466:1540   */\n      swap2\n      pop\n        /* \"#utility.yul\":1549:1642   */\n      tag_51\n        /* \"#utility.yul\":1638:1641   */\n      dup3\n        /* \"#utility.yul\":1549:1642   */\n      tag_29\n      jump\t// in\n    tag_51:\n        /* \"#utility.yul\":1667:1669   */\n      0x20\n        /* \"#utility.yul\":1662:1665   */\n      dup3\n        /* \"#utility.yul\":1658:1670   */\n      add\n        /* \"#utility.yul\":1651:1670   */\n      swap1\n      pop\n        /* \"#utility.yul\":1310:1676   */\n      swap2\n      swap1\n      pop\n      jump\t// out\n        /* \"#utility.yul\":1682:2101   */\n    tag_14:\n        /* \"#utility.yul\":1848:1852   */\n      0x00\n        /* \"#utility.yul\":1886:1888   */\n      0x20\n        /* \"#utility.yul\":1875:1884   */\n      dup3\n        /* \"#utility.yul\":1871:1889   */\n      add\n        /* \"#utility.yul\":1863:1889   */\n      swap1\n      pop\n        /* \"#utility.yul\":1935:1944   */\n      dup2\n        /* \"#utility.yul\":1929:1933   */\n      dup2\n        /* \"#utility.yul\":1925:1945   */\n      sub\n        /* \"#utility.yul\":1921:1922   */\n      0x00\n        /* \"#utility.yul\":1910:1919   */\n      dup4\n        /* \"#utility.yul\":1906:1923   */\n      add\n        /* \"#utility.yul\":1899:1946   */\n      mstore\n        /* \"#utility.yul\":1963:2094   */\n      tag_53\n        /* \"#utility.yul\":2089:2093   */\n      dup2\n        /* \"#utility.yul\":1963:2094   */\n      tag_30\n      jump\t// in\n    tag_53:\n        /* \"#utility.yul\":1955:2094   */\n      swap1\n      pop\n        /* \"#utility.yul\":1682:2101   */\n      swap2\n      swap1\n      pop\n      jump\t// out\n        /* \"#utility.yul\":2107:2233   */\n    tag_31:\n        /* \"#utility.yul\":2144:2151   */\n      0x00\n        /* \"#utility.yul\":2184:2226   */\n      0xffffffffffffffffffffffffffffffffffffffff\n        /* \"#utility.yul\":2177:2182   */\n      dup3\n        /* \"#utility.yul\":2173:2227   */\n      and\n        /* \"#utility.yul\":2162:2227   */\n      swap1\n      pop\n        /* \"#utility.yul\":2107:2233   */\n      swap2\n      swap1\n      pop\n      jump\t// out\n        /* \"#utility.yul\":2239:2335   */\n    tag_32:\n        /* \"#utility.yul\":2276:2283   */\n      0x00\n        /* \"#utility.yul\":2305:2329   */\n      tag_56\n        /* \"#utility.yul\":2323:2328   */\n      dup3\n        /* \"#utility.yul\":2305:2329   */\n      tag_31\n      jump\t// in\n    tag_56:\n        /* \"#utility.yul\":2294:2329   */\n      swap1\n      pop\n        /* \"#utility.yul\":2239:2335   */\n      swap2\n      swap1\n      pop\n      jump\t// out\n        /* \"#utility.yul\":2341:2459   */\n    tag_33:\n        /* \"#utility.yul\":2428:2452   */\n      tag_58\n        /* \"#utility.yul\":2446:2451   */\n      dup2\n        /* \"#utility.yul\":2428:2452   */\n      tag_32\n      jump\t// in\n    tag_58:\n        /* \"#utility.yul\":2423:2426   */\n      dup3\n        /* \"#utility.yul\":2416:2453   */\n      mstore\n        /* \"#utility.yul\":2341:2459   */\n      pop\n      pop\n      jump\t// out\n        /* \"#utility.yul\":2465:2687   */\n    tag_19:\n        /* \"#utility.yul\":2558:2562   */\n      0x00\n        /* \"#utility.yul\":2596:2598   */\n      0x20\n        /* \"#utility.yul\":2585:2594   */\n      dup3\n        /* \"#utility.yul\":2581:2599   */\n      add\n        /* \"#utility.yul\":2573:2599   */\n      swap1\n      pop\n        /* \"#utility.yul\":2609:2680   */\n      tag_60\n        /* \"#utility.yul\":2677:2678   */\n      0x00\n        /* \"#utility.yul\":2666:2675   */\n      dup4\n        /* \"#utility.yul\":2662:2679   */\n      add\n        /* \"#utility.yul\":2653:2659   */\n      dup5\n        /* \"#utility.yul\":2609:2680   */\n      tag_33\n      jump\t// in\n    tag_60:\n        /* \"#utility.yul\":2465:2687   */\n      swap3\n      swap2\n      pop\n      pop\n      jump\t// out\n        /* \"#utility.yul\":2693:2753   */\n    tag_34:\n        /* \"#utility.yul\":2721:2724   */\n      0x00\n        /* \"#utility.yul\":2742:2747   */\n      dup2\n        /* \"#utility.yul\":2735:2747   */\n      swap1\n      pop\n        /* \"#utility.yul\":2693:2753   */\n      swap2\n      swap1\n      pop\n      jump\t// out\n        /* \"#utility.yul\":2759:2901   */\n    tag_35:\n        /* \"#utility.yul\":2809:2818   */\n      0x00\n        /* \"#utility.yul\":2842:2895   */\n      tag_63\n        /* \"#utility.yul\":2860:2894   */\n      tag_64\n        /* \"#utility.yul\":2869:2893   */\n      tag_65\n        /* \"#utility.yul\":2887:2892   */\n      dup5\n        /* \"#utility.yul\":2869:2893   */\n      tag_31\n      jump\t// in\n    tag_65:\n        /* \"#utility.yul\":2860:2894   */\n      tag_34\n      jump\t// in\n    tag_64:\n        /* \"#utility.yul\":2842:2895   */\n      tag_31\n      jump\t// in\n    tag_63:\n        /* \"#utility.yul\":2829:2895   */\n      swap1\n      pop\n        /* \"#utility.yul\":2759:2901   */\n      swap2\n      swap1\n      pop\n      jump\t// out\n        /* \"#utility.yul\":2907:3033   */\n    tag_36:\n        /* \"#utility.yul\":2957:2966   */\n      0x00\n        /* \"#utility.yul\":2990:3027   */\n      tag_67\n        /* \"#utility.yul\":3021:3026   */\n      dup3\n        /* \"#utility.yul\":2990:3027   */\n      tag_35\n      jump\t// in\n    tag_67:\n        /* \"#utility.yul\":2977:3027   */\n      swap1\n      pop\n        /* \"#utility.yul\":2907:3033   */\n      swap2\n      swap1\n      pop\n      jump\t// out\n        /* \"#utility.yul\":3039:3175   */\n    tag_37:\n        /* \"#utility.yul\":3099:3108   */\n      0x00\n        /* \"#utility.yul\":3132:3169   */\n      tag_69\n        /* \"#utility.yul\":3163:3168   */\n      dup3\n        /* \"#utility.yul\":3132:3169   */\n      tag_36\n      jump\t// in\n    tag_69:\n        /* \"#utility.yul\":3119:3169   */\n      swap1\n      pop\n        /* \"#utility.yul\":3039:3175   */\n      swap2\n      swap1\n      pop\n      jump\t// out\n        /* \"#utility.yul\":3181:3332   */\n    tag_38:\n        /* \"#utility.yul\":3278:3325   */\n      tag_71\n        /* \"#utility.yul\":3319:3324   */\n      dup2\n        /* \"#utility.yul\":3278:3325   */\n      tag_37\n      jump\t// in\n    tag_71:\n        /* \"#utility.yul\":3273:3276   */\n      dup3\n        /* \"#utility.yul\":3266:3326   */\n      mstore\n        /* \"#utility.yul\":3181:3332   */\n      pop\n      pop\n      jump\t// out\n        /* \"#utility.yul\":3338:3580   */\n    tag_24:\n        /* \"#utility.yul\":3441:3445   */\n      0x00\n        /* \"#utility.yul\":3479:3481   */\n      0x20\n        /* \"#utility.yul\":3468:3477   */\n      dup3\n        /* \"#utility.yul\":3464:3482   */\n      add\n        /* \"#utility.yul\":3456:3482   */\n      swap1\n      pop\n        /* \"#utility.yul\":3492:3573   */\n      tag_73\n        /* \"#utility.yul\":3570:3571   */\n      0x00\n        /* \"#utility.yul\":3559:3568   */\n      dup4\n        /* \"#utility.yul\":3555:3572   */\n      add\n        /* \"#utility.yul\":3546:3552   */\n      dup5\n        /* \"#utility.yul\":3492:3573   */\n      tag_38\n      jump\t// in\n    tag_73:\n        /* \"#utility.yul\":3338:3580   */\n      swap3\n      swap2\n      pop\n      pop\n      jump\t// out\n\n    auxdata: 0xa2646970667358221220b6694230fa32543c4e9a584f1e64ac611e6c2034c6683a22e0de85dfc373a3a164736f6c63430008110033\n}\n",
				"bytecode": {
					"linkReferences": {},
					"object": "608060405234801561001057600080fd5b506040516104eb3803806104eb8339818101604052810190610032919061012e565b336000806101000a81548173ffffffffffffffffffffffffffffffffffffffff021916908373ffffffffffffffffffffffffffffffffffffffff16021790555080600160006101000a81548173ffffffffffffffffffffffffffffffffffffffff021916908373ffffffffffffffffffffffffffffffffffffffff1602179055505061015b565b600080fd5b600073ffffffffffffffffffffffffffffffffffffffff82169050919050565b60006100e9826100be565b9050919050565b60006100fb826100de565b9050919050565b61010b816100f0565b811461011657600080fd5b50565b60008151905061012881610102565b92915050565b600060208284031215610144576101436100b9565b5b600061015284828501610119565b91505092915050565b6103818061016a6000396000f3fe60806040526004361061002d5760003560e01c80638da5cb5b14610100578063928012301461012b5761002e565b5b6000600160009054906101000a900473ffffffffffffffffffffffffffffffffffffffff1673ffffffffffffffffffffffffffffffffffffffff1660003660405161007a9291906101df565b600060405180830381855af49150503d80600081146100b5576040519150601f19603f3d011682016040523d82523d6000602084013e6100ba565b606091505b50509050806100fe576040517f08c379a00000000000000000000000000000000000000000000000000000000081526004016100f590610255565b60405180910390fd5b005b34801561010c57600080fd5b50610115610156565b60405161012291906102b6565b60405180910390f35b34801561013757600080fd5b5061014061017a565b60405161014d9190610330565b60405180910390f35b60008054906101000a900473ffffffffffffffffffffffffffffffffffffffff1681565b600160009054906101000a900473ffffffffffffffffffffffffffffffffffffffff1681565b600081905092915050565b82818337600083830152505050565b60006101c683856101a0565b93506101d38385846101ab565b82840190509392505050565b60006101ec8284866101ba565b91508190509392505050565b600082825260208201905092915050565b7f4c69622063616c6c206661696c65640000000000000000000000000000000000600082015250565b600061023f600f836101f8565b915061024a82610209565b602082019050919050565b6000602082019050818103600083015261026e81610232565b9050919050565b600073ffffffffffffffffffffffffffffffffffffffff82169050919050565b60006102a082610275565b9050919050565b6102b081610295565b82525050565b60006020820190506102cb60008301846102a7565b92915050565b6000819050919050565b60006102f66102f16102ec84610275565b6102d1565b610275565b9050919050565b6000610308826102db565b9050919050565b600061031a826102fd565b9050919050565b61032a8161030f565b82525050565b60006020820190506103456000830184610321565b9291505056fea2646970667358221220b6694230fa32543c4e9a584f1e64ac611e6c2034c6683a22e0de85dfc373a3a164736f6c63430008110033",
					"opcodes": "PUSH1 0x80 PUSH1 0x40 MSTORE CALLVALUE DUP1 ISZERO PUSH2 0x10 JUMPI PUSH1 0x0 DUP1 REVERT JUMPDEST POP PUSH1 0x40 MLOAD PUSH2 0x4EB CODESIZE SUB DUP1 PUSH2 0x4EB DUP4 CODECOPY DUP2 DUP2 ADD PUSH1 0x40 MSTORE DUP2 ADD SWAP1 PUSH2 0x32 SWAP2 SWAP1 PUSH2 0x12E JUMP JUMPDEST CALLER PUSH1 0x0 DUP1 PUSH2 0x100 EXP DUP2 SLOAD DUP2 PUSH20 0xFFFFFFFFFFFFFFFFFFFFFFFFFFFFFFFFFFFFFFFF MUL NOT AND SWAP1 DUP4 PUSH20 0xFFFFFFFFFFFFFFFFFFFFFFFFFFFFFFFFFFFFFFFF AND MUL OR SWAP1 SSTORE POP DUP1 PUSH1 0x1 PUSH1 0x0 PUSH2 0x100 EXP DUP2 SLOAD DUP2 PUSH20 0xFFFFFFFFFFFFFFFFFFFFFFFFFFFFFFFFFFFFFFFF MUL NOT AND SWAP1 DUP4 PUSH20 0xFFFFFFFFFFFFFFFFFFFFFFFFFFFFFFFFFFFFFFFF AND MUL OR SWAP1 SSTORE POP POP PUSH2 0x15B JUMP JUMPDEST PUSH1 0x0 DUP1 REVERT JUMPDEST PUSH1 0x0 PUSH20 0xFFFFFFFFFFFFFFFFFFFFFFFFFFFFFFFFFFFFFFFF DUP3 AND SWAP1 POP SWAP2 SWAP1 POP JUMP JUMPDEST PUSH1 0x0 PUSH2 0xE9 DUP3 PUSH2 0xBE JUMP JUMPDEST SWAP1 POP SWAP2 SWAP1 POP JUMP JUMPDEST PUSH1 0x0 PUSH2 0xFB DUP3 PUSH2 0xDE JUMP JUMPDEST SWAP1 POP SWAP2 SWAP1 POP JUMP JUMPDEST PUSH2 0x10B DUP2 PUSH2 0xF0 JUMP JUMPDEST DUP2 EQ PUSH2 0x116 JUMPI PUSH1 0x0 DUP1 REVERT JUMPDEST POP JUMP JUMPDEST PUSH1 0x0 DUP2 MLOAD SWAP1 POP PUSH2 0x128 DUP2 PUSH2 0x102 JUMP JUMPDEST SWAP3 SWAP2 POP POP JUMP JUMPDEST PUSH1 0x0 PUSH1 0x20 DUP3 DUP5 SUB SLT ISZERO PUSH2 0x144 JUMPI PUSH2 0x143 PUSH2 0xB9 JUMP JUMPDEST JUMPDEST PUSH1 0x0 PUSH2 0x152 DUP5 DUP3 DUP6 ADD PUSH2 0x119 JUMP JUMPDEST SWAP2 POP POP SWAP3 SWAP2 POP POP JUMP JUMPDEST PUSH2 0x381 DUP1 PUSH2 0x16A PUSH1 0x0 CODECOPY PUSH1 0x0 RETURN INVALID PUSH1 0x80 PUSH1 0x40 MSTORE PUSH1 0x4 CALLDATASIZE LT PUSH2 0x2D JUMPI PUSH1 0x0 CALLDATALOAD PUSH1 0xE0 SHR DUP1 PUSH4 0x8DA5CB5B EQ PUSH2 0x100 JUMPI DUP1 PUSH4 0x92801230 EQ PUSH2 0x12B JUMPI PUSH2 0x2E JUMP JUMPDEST JUMPDEST PUSH1 0x0 PUSH1 0x1 PUSH1 0x0 SWAP1 SLOAD SWAP1 PUSH2 0x100 EXP SWAP1 DIV PUSH20 0xFFFFFFFFFFFFFFFFFFFFFFFFFFFFFFFFFFFFFFFF AND PUSH20 0xFFFFFFFFFFFFFFFFFFFFFFFFFFFFFFFFFFFFFFFF AND PUSH1 0x0 CALLDATASIZE PUSH1 0x40 MLOAD PUSH2 0x7A SWAP3 SWAP2 SWAP1 PUSH2 0x1DF JUMP JUMPDEST PUSH1 0x0 PUSH1 0x40 MLOAD DUP1 DUP4 SUB DUP2 DUP6 GAS DELEGATECALL SWAP2 POP POP RETURNDATASIZE DUP1 PUSH1 0x0 DUP2 EQ PUSH2 0xB5 JUMPI PUSH1 0x40 MLOAD SWAP2 POP PUSH1 0x1F NOT PUSH1 0x3F RETURNDATASIZE ADD AND DUP3 ADD PUSH1 0x40 MSTORE RETURNDATASIZE DUP3 MSTORE RETURNDATASIZE PUSH1 0x0 PUSH1 0x20 DUP5 ADD RETURNDATACOPY PUSH2 0xBA JUMP JUMPDEST PUSH1 0x60 SWAP2 POP JUMPDEST POP POP SWAP1 POP DUP1 PUSH2 0xFE JUMPI PUSH1 0x40 MLOAD PUSH32 0x8C379A000000000000000000000000000000000000000000000000000000000 DUP2 MSTORE PUSH1 0x4 ADD PUSH2 0xF5 SWAP1 PUSH2 0x255 JUMP JUMPDEST PUSH1 0x40 MLOAD DUP1 SWAP2 SUB SWAP1 REVERT JUMPDEST STOP JUMPDEST CALLVALUE DUP1 ISZERO PUSH2 0x10C JUMPI PUSH1 0x0 DUP1 REVERT JUMPDEST POP PUSH2 0x115 PUSH2 0x156 JUMP JUMPDEST PUSH1 0x40 MLOAD PUSH2 0x122 SWAP2 SWAP1 PUSH2 0x2B6 JUMP JUMPDEST PUSH1 0x40 MLOAD DUP1 SWAP2 SUB SWAP1 RETURN JUMPDEST CALLVALUE DUP1 ISZERO PUSH2 0x137 JUMPI PUSH1 0x0 DUP1 REVERT JUMPDEST POP PUSH2 0x140 PUSH2 0x17A JUMP JUMPDEST PUSH1 0x40 MLOAD PUSH2 0x14D SWAP2 SWAP1 PUSH2 0x330 JUMP JUMPDEST PUSH1 0x40 MLOAD DUP1 SWAP2 SUB SWAP1 RETURN JUMPDEST PUSH1 0x0 DUP1 SLOAD SWAP1 PUSH2 0x100 EXP SWAP1 DIV PUSH20 0xFFFFFFFFFFFFFFFFFFFFFFFFFFFFFFFFFFFFFFFF AND DUP2 JUMP JUMPDEST PUSH1 0x1 PUSH1 0x0 SWAP1 SLOAD SWAP1 PUSH2 0x100 EXP SWAP1 DIV PUSH20 0xFFFFFFFFFFFFFFFFFFFFFFFFFFFFFFFFFFFFFFFF AND DUP2 JUMP JUMPDEST PUSH1 0x0 DUP2 SWAP1 POP SWAP3 SWAP2 POP POP JUMP JUMPDEST DUP3 DUP2 DUP4 CALLDATACOPY PUSH1 0x0 DUP4 DUP4 ADD MSTORE POP POP POP JUMP JUMPDEST PUSH1 0x0 PUSH2 0x1C6 DUP4 DUP6 PUSH2 0x1A0 JUMP JUMPDEST SWAP4 POP PUSH2 0x1D3 DUP4 DUP6 DUP5 PUSH2 0x1AB JUMP JUMPDEST DUP3 DUP5 ADD SWAP1 POP SWAP4 SWAP3 POP POP POP JUMP JUMPDEST PUSH1 0x0 PUSH2 0x1EC DUP3 DUP5 DUP7 PUSH2 0x1BA JUMP JUMPDEST SWAP2 POP DUP2 SWAP1 POP SWAP4 SWAP3 POP POP POP JUMP JUMPDEST PUSH1 0x0 DUP3 DUP3 MSTORE PUSH1 0x20 DUP3 ADD SWAP1 POP SWAP3 SWAP2 POP POP JUMP JUMPDEST PUSH32 0x4C69622063616C6C206661696C65640000000000000000000000000000000000 PUSH1 0x0 DUP3 ADD MSTORE POP JUMP JUMPDEST PUSH1 0x0 PUSH2 0x23F PUSH1 0xF DUP4 PUSH2 0x1F8 JUMP JUMPDEST SWAP2 POP PUSH2 0x24A DUP3 PUSH2 0x209 JUMP JUMPDEST PUSH1 0x20 DUP3 ADD SWAP1 POP SWAP2 SWAP1 POP JUMP JUMPDEST PUSH1 0x0 PUSH1 0x20 DUP3 ADD SWAP1 POP DUP2 DUP2 SUB PUSH1 0x0 DUP4 ADD MSTORE PUSH2 0x26E DUP2 PUSH2 0x232 JUMP JUMPDEST SWAP1 POP SWAP2 SWAP1 POP JUMP JUMPDEST PUSH1 0x0 PUSH20 0xFFFFFFFFFFFFFFFFFFFFFFFFFFFFFFFFFFFFFFFF DUP3 AND SWAP1 POP SWAP2 SWAP1 POP JUMP JUMPDEST PUSH1 0x0 PUSH2 0x2A0 DUP3 PUSH2 0x275 JUMP JUMPDEST SWAP1 POP SWAP2 SWAP1 POP JUMP JUMPDEST PUSH2 0x2B0 DUP2 PUSH2 0x295 JUMP JUMPDEST DUP3 MSTORE POP POP JUMP JUMPDEST PUSH1 0x0 PUSH1 0x20 DUP3 ADD SWAP1 POP PUSH2 0x2CB PUSH1 0x0 DUP4 ADD DUP5 PUSH2 0x2A7 JUMP JUMPDEST SWAP3 SWAP2 POP POP JUMP JUMPDEST PUSH1 0x0 DUP2 SWAP1 POP SWAP2 SWAP1 POP JUMP JUMPDEST PUSH1 0x0 PUSH2 0x2F6 PUSH2 0x2F1 PUSH2 0x2EC DUP5 PUSH2 0x275 JUMP JUMPDEST PUSH2 0x2D1 JUMP JUMPDEST PUSH2 0x275 JUMP JUMPDEST SWAP1 POP SWAP2 SWAP1 POP JUMP JUMPDEST PUSH1 0x0 PUSH2 0x308 DUP3 PUSH2 0x2DB JUMP JUMPDEST SWAP1 POP SWAP2 SWAP1 POP JUMP JUMPDEST PUSH1 0x0 PUSH2 0x31A DUP3 PUSH2 0x2FD JUMP JUMPDEST SWAP1 POP SWAP2 SWAP1 POP JUMP JUMPDEST PUSH2 0x32A DUP2 PUSH2 0x30F JUMP JUMPDEST DUP3 MSTORE POP POP JUMP JUMPDEST PUSH1 0x0 PUSH1 0x20 DUP3 ADD SWAP1 POP PUSH2 0x345 PUSH1 0x0 DUP4 ADD DUP5 PUSH2 0x321 JUMP JUMPDEST SWAP3 SWAP2 POP POP JUMP INVALID LOG2 PUSH5 0x6970667358 0x22 SLT KECCAK256 0xB6 PUSH10 0x4230FA32543C4E9A584F 0x1E PUSH5 0xAC611E6C20 CALLVALUE 0xC6 PUSH9 0x3A22E0DE85DFC373A3 LOG1 PUSH5 0x736F6C6343 STOP ADDMOD GT STOP CALLER "
				},
				"gasEstimates": {
					"creation": {
						"codeDepositCost": "179400",
						"executionCost": "infinite",
						"totalCost": "infinite"
					},
					"external": {
						"": "infinite",
						"lib()": "infinite",
						"owner()": "2489"
					}
				},
				"methodIdentifiers": {
					"lib()": "92801230",
					"owner()": "8da5cb5b"
				}
			},
			"storageLayout": {
				"storage": [
					{
						"astId": 18,
						"contract": "VulnerableStorageContract.sol:VulnerableContract",
						"label": "owner",
						"offset": 0,
						"slot": "0",
						"type": "t_address"
					},
					{
						"astId": 21,
						"contract": "VulnerableStorageContract.sol:VulnerableContract",
						"label": "lib",
						"offset": 0,
						"slot": "1",
						"type": "t_contract(Lib)15"
					}
				],
				"types": {
					"t_address": {
						"encoding": "inplace",
						"label": "address",
						"numberOfBytes": "20"
					},
					"t_contract(Lib)15": {
						"encoding": "inplace",
						"label": "contract Lib",
						"numberOfBytes": "20"
					}
				}
			},
			"userdoc": {
				"kind": "user",
				"methods": {},
				"version": 1
			}
		}
	}
}