{
	"DelegateExample1.sol": {
		"CallingContract": {
			"abi": [
				{
					"inputs": [],
					"name": "logic_pointer",
					"outputs": [
						{
							"internalType": "address",
							"name": "",
							"type": "address"
						}
					],
					"stateMutability": "view",
					"type": "function"
				},
				{
					"inputs": [],
					"name": "print_my_call_address",
					"outputs": [
						{
							"internalType": "address",
							"name": "",
							"type": "address"
						}
					],
					"stateMutability": "nonpayable",
					"type": "function"
				},
				{
					"inputs": [],
					"name": "print_my_delgate_address",
					"outputs": [
						{
							"internalType": "address",
							"name": "",
							"type": "address"
						}
					],
					"stateMutability": "nonpayable",
					"type": "function"
				},
				{
					"inputs": [],
					"name": "returnedAddress",
					"outputs": [
						{
							"internalType": "address",
							"name": "",
							"type": "address"
						}
					],
					"stateMutability": "view",
					"type": "function"
				}
			],
			"devdoc": {
				"kind": "dev",
				"methods": {},
				"version": 1
			},
			"evm": {
				"assembly": "    /* \"DelegateExample1.sol\":312:715  contract CallingContract { ... */\n  mstore(0x40, 0x80)\n    /* \"DelegateExample1.sol\":416:435  new LogicContract() */\n  mload(0x40)\n  tag_1\n  swap1\n  tag_2\n  jump\t// in\ntag_1:\n  mload(0x40)\n  dup1\n  swap2\n  sub\n  swap1\n  0x00\n  create\n  dup1\n  iszero\n  dup1\n  iszero\n  tag_3\n  jumpi\n  returndatasize\n  0x00\n  dup1\n  returndatacopy\n  revert(0x00, returndatasize)\ntag_3:\n  pop\n    /* \"DelegateExample1.sol\":377:436  address public logic_pointer = address(new LogicContract()) */\n  0x01\n  exp(0x0100, 0x00)\n  dup2\n  sload\n  dup2\n  0xffffffffffffffffffffffffffffffffffffffff\n  mul\n  not\n  and\n  swap1\n  dup4\n  0xffffffffffffffffffffffffffffffffffffffff\n  and\n  mul\n  or\n  swap1\n  sstore\n  pop\n    /* \"DelegateExample1.sol\":312:715  contract CallingContract { ... */\n  callvalue\n  dup1\n  iszero\n  tag_4\n  jumpi\n  0x00\n  dup1\n  revert\ntag_4:\n  pop\n  jump(tag_5)\ntag_2:\n  dataSize(sub_1)\n  dup1\n  dataOffset(sub_1)\n  dup4\n  codecopy\n  add\n  swap1\n  jump\t// out\ntag_5:\n  dataSize(sub_0)\n  dup1\n  dataOffset(sub_0)\n  0x00\n  codecopy\n  0x00\n  return\nstop\n\nsub_0: assembly {\n        /* \"DelegateExample1.sol\":312:715  contract CallingContract { ... */\n      mstore(0x40, 0x80)\n      callvalue\n      dup1\n      iszero\n      tag_1\n      jumpi\n      0x00\n      dup1\n      revert\n    tag_1:\n      pop\n      jumpi(tag_2, lt(calldatasize, 0x04))\n      shr(0xe0, calldataload(0x00))\n      dup1\n      0x1210bdf3\n      eq\n      tag_3\n      jumpi\n      dup1\n      0x5daf34c0\n      eq\n      tag_4\n      jumpi\n      dup1\n      0xbf334aae\n      eq\n      tag_5\n      jumpi\n      dup1\n      0xe628ca87\n      eq\n      tag_6\n      jumpi\n    tag_2:\n      0x00\n      dup1\n      revert\n        /* \"DelegateExample1.sol\":584:713  function print_my_call_address() public returns(address){... */\n    tag_3:\n      tag_7\n      tag_8\n      jump\t// in\n    tag_7:\n      mload(0x40)\n      dup1\n      dup3\n      0xffffffffffffffffffffffffffffffffffffffff\n      and\n      dup2\n      mstore\n      0x20\n      add\n      swap2\n      pop\n      pop\n      mload(0x40)\n      dup1\n      swap2\n      sub\n      swap1\n      return\n        /* \"DelegateExample1.sol\":377:436  address public logic_pointer = address(new LogicContract()) */\n    tag_4:\n      tag_9\n      tag_10\n      jump\t// in\n    tag_9:\n      mload(0x40)\n      dup1\n      dup3\n      0xffffffffffffffffffffffffffffffffffffffff\n      and\n      dup2\n      mstore\n      0x20\n      add\n      swap2\n      pop\n      pop\n      mload(0x40)\n      dup1\n      swap2\n      sub\n      swap1\n      return\n        /* \"DelegateExample1.sol\":441:581  function print_my_delgate_address() public returns(address){... */\n    tag_5:\n      tag_11\n      tag_12\n      jump\t// in\n    tag_11:\n      mload(0x40)\n      dup1\n      dup3\n      0xffffffffffffffffffffffffffffffffffffffff\n      and\n      dup2\n      mstore\n      0x20\n      add\n      swap2\n      pop\n      pop\n      mload(0x40)\n      dup1\n      swap2\n      sub\n      swap1\n      return\n        /* \"DelegateExample1.sol\":342:372  address public returnedAddress */\n    tag_6:\n      tag_13\n      tag_14\n      jump\t// in\n    tag_13:\n      mload(0x40)\n      dup1\n      dup3\n      0xffffffffffffffffffffffffffffffffffffffff\n      and\n      dup2\n      mstore\n      0x20\n      add\n      swap2\n      pop\n      pop\n      mload(0x40)\n      dup1\n      swap2\n      sub\n      swap1\n      return\n        /* \"DelegateExample1.sol\":584:713  function print_my_call_address() public returns(address){... */\n    tag_8:\n        /* \"DelegateExample1.sol\":632:639  address */\n      0x00\n        /* \"DelegateExample1.sol\":646:659  logic_pointer */\n      0x01\n      0x00\n      swap1\n      sload\n      swap1\n      0x0100\n      exp\n      swap1\n      div\n      0xffffffffffffffffffffffffffffffffffffffff\n      and\n        /* \"DelegateExample1.sol\":646:664  logic_pointer.call */\n      0xffffffffffffffffffffffffffffffffffffffff\n      and\n        /* \"DelegateExample1.sol\":665:707  abi.encodeWithSignature(\"print_address()\") */\n      add(0x24, mload(0x40))\n      mload(0x40)\n      0x20\n      dup2\n      dup4\n      sub\n      sub\n      dup2\n      mstore\n      swap1\n      0x40\n      mstore\n      and(not(0xffffffffffffffffffffffffffffffffffffffffffffffffffffffff), 0x0922098000000000000000000000000000000000000000000000000000000000)\n      0x20\n      dup3\n      add\n      dup1\n      mload\n      0xffffffffffffffffffffffffffffffffffffffffffffffffffffffff\n      dup4\n      dup2\n      dup4\n      and\n      or\n      dup4\n      mstore\n      pop\n      pop\n      pop\n      pop\n        /* \"DelegateExample1.sol\":646:708  logic_pointer.call(abi.encodeWithSignature(\"print_address()\")) */\n      mload(0x40)\n      dup1\n      dup3\n      dup1\n      mload\n      swap1\n      0x20\n      add\n      swap1\n      dup1\n      dup4\n      dup4\n    tag_16:\n      0x20\n      dup4\n      lt\n      tag_18\n      jumpi\n      dup1\n      mload\n      dup3\n      mstore\n      0x20\n      dup3\n      add\n      swap2\n      pop\n      0x20\n      dup2\n      add\n      swap1\n      pop\n      0x20\n      dup4\n      sub\n      swap3\n      pop\n      jump(tag_16)\n    tag_18:\n      0x01\n      dup4\n      0x20\n      sub\n      0x0100\n      exp\n      sub\n      dup1\n      not\n      dup3\n      mload\n      and\n      dup2\n      dup5\n      mload\n      and\n      dup1\n      dup3\n      or\n      dup6\n      mstore\n      pop\n      pop\n      pop\n      pop\n      pop\n      pop\n      swap1\n      pop\n      add\n      swap2\n      pop\n      pop\n      0x00\n      mload(0x40)\n      dup1\n      dup4\n      sub\n      dup2\n      0x00\n      dup7\n      gas\n      call\n      swap2\n      pop\n      pop\n      returndatasize\n      dup1\n      0x00\n      dup2\n      eq\n      tag_21\n      jumpi\n      mload(0x40)\n      swap2\n      pop\n      and(add(returndatasize, 0x3f), not(0x1f))\n      dup3\n      add\n      0x40\n      mstore\n      returndatasize\n      dup3\n      mstore\n      returndatasize\n      0x00\n      0x20\n      dup5\n      add\n      returndatacopy\n      jump(tag_20)\n    tag_21:\n      0x60\n      swap2\n      pop\n    tag_20:\n      pop\n      pop\n      pop\n        /* \"DelegateExample1.sol\":584:713  function print_my_call_address() public returns(address){... */\n      swap1\n      jump\t// out\n        /* \"DelegateExample1.sol\":377:436  address public logic_pointer = address(new LogicContract()) */\n    tag_10:\n      0x01\n      0x00\n      swap1\n      sload\n      swap1\n      0x0100\n      exp\n      swap1\n      div\n      0xffffffffffffffffffffffffffffffffffffffff\n      and\n      dup2\n      jump\t// out\n        /* \"DelegateExample1.sol\":441:581  function print_my_delgate_address() public returns(address){... */\n    tag_12:\n        /* \"DelegateExample1.sol\":492:499  address */\n      0x00\n        /* \"DelegateExample1.sol\":506:519  logic_pointer */\n      0x01\n      0x00\n      swap1\n      sload\n      swap1\n      0x0100\n      exp\n      swap1\n      div\n      0xffffffffffffffffffffffffffffffffffffffff\n      and\n        /* \"DelegateExample1.sol\":506:532  logic_pointer.delegatecall */\n      0xffffffffffffffffffffffffffffffffffffffff\n      and\n        /* \"DelegateExample1.sol\":533:575  abi.encodeWithSignature(\"print_address()\") */\n      add(0x24, mload(0x40))\n      mload(0x40)\n      0x20\n      dup2\n      dup4\n      sub\n      sub\n      dup2\n      mstore\n      swap1\n      0x40\n      mstore\n      and(not(0xffffffffffffffffffffffffffffffffffffffffffffffffffffffff), 0x0922098000000000000000000000000000000000000000000000000000000000)\n      0x20\n      dup3\n      add\n      dup1\n      mload\n      0xffffffffffffffffffffffffffffffffffffffffffffffffffffffff\n      dup4\n      dup2\n      dup4\n      and\n      or\n      dup4\n      mstore\n      pop\n      pop\n      pop\n      pop\n        /* \"DelegateExample1.sol\":506:576  logic_pointer.delegatecall(abi.encodeWithSignature(\"print_address()\")) */\n      mload(0x40)\n      dup1\n      dup3\n      dup1\n      mload\n      swap1\n      0x20\n      add\n      swap1\n      dup1\n      dup4\n      dup4\n    tag_23:\n      0x20\n      dup4\n      lt\n      tag_25\n      jumpi\n      dup1\n      mload\n      dup3\n      mstore\n      0x20\n      dup3\n      add\n      swap2\n      pop\n      0x20\n      dup2\n      add\n      swap1\n      pop\n      0x20\n      dup4\n      sub\n      swap3\n      pop\n      jump(tag_23)\n    tag_25:\n      0x01\n      dup4\n      0x20\n      sub\n      0x0100\n      exp\n      sub\n      dup1\n      not\n      dup3\n      mload\n      and\n      dup2\n      dup5\n      mload\n      and\n      dup1\n      dup3\n      or\n      dup6\n      mstore\n      pop\n      pop\n      pop\n      pop\n      pop\n      pop\n      swap1\n      pop\n      add\n      swap2\n      pop\n      pop\n      0x00\n      mload(0x40)\n      dup1\n      dup4\n      sub\n      dup2\n      dup6\n      gas\n      delegatecall\n      swap2\n      pop\n      pop\n      returndatasize\n      dup1\n      0x00\n      dup2\n      eq\n      tag_28\n      jumpi\n      mload(0x40)\n      swap2\n      pop\n      and(add(returndatasize, 0x3f), not(0x1f))\n      dup3\n      add\n      0x40\n      mstore\n      returndatasize\n      dup3\n      mstore\n      returndatasize\n      0x00\n      0x20\n      dup5\n      add\n      returndatacopy\n      jump(tag_27)\n    tag_28:\n      0x60\n      swap2\n      pop\n    tag_27:\n      pop\n      pop\n      pop\n        /* \"DelegateExample1.sol\":441:581  function print_my_delgate_address() public returns(address){... */\n      swap1\n      jump\t// out\n        /* \"DelegateExample1.sol\":342:372  address public returnedAddress */\n    tag_14:\n      0x00\n      dup1\n      sload\n      swap1\n      0x0100\n      exp\n      swap1\n      div\n      0xffffffffffffffffffffffffffffffffffffffff\n      and\n      dup2\n      jump\t// out\n\n    auxdata: 0xa264697066735822122052476149dcb08d3f112112494d3d5cf8e12016dba0cb2c24d092e75cbdee72d864736f6c634300060c0033\n}\n\nsub_1: assembly {\n        /* \"DelegateExample1.sol\":58:310  contract LogicContract {... */\n      mstore(0x40, 0x80)\n      callvalue\n      dup1\n      iszero\n      tag_1\n      jumpi\n      0x00\n      dup1\n      revert\n    tag_1:\n      pop\n      dataSize(sub_0)\n      dup1\n      dataOffset(sub_0)\n      0x00\n      codecopy\n      0x00\n      return\n    stop\n\n    sub_0: assembly {\n            /* \"DelegateExample1.sol\":58:310  contract LogicContract {... */\n          mstore(0x40, 0x80)\n          callvalue\n          dup1\n          iszero\n          tag_1\n          jumpi\n          0x00\n          dup1\n          revert\n        tag_1:\n          pop\n          jumpi(tag_2, lt(calldatasize, 0x04))\n          shr(0xe0, calldataload(0x00))\n          dup1\n          0x09220980\n          eq\n          tag_3\n          jumpi\n          dup1\n          0xe628ca87\n          eq\n          tag_4\n          jumpi\n        tag_2:\n          0x00\n          dup1\n          revert\n            /* \"DelegateExample1.sol\":173:308  function print_address() public  returns(address){... */\n        tag_3:\n          tag_5\n          tag_6\n          jump\t// in\n        tag_5:\n          mload(0x40)\n          dup1\n          dup3\n          0xffffffffffffffffffffffffffffffffffffffff\n          and\n          dup2\n          mstore\n          0x20\n          add\n          swap2\n          pop\n          pop\n          mload(0x40)\n          dup1\n          swap2\n          sub\n          swap1\n          return\n            /* \"DelegateExample1.sol\":85:115  address public returnedAddress */\n        tag_4:\n          tag_7\n          tag_8\n          jump\t// in\n        tag_7:\n          mload(0x40)\n          dup1\n          dup3\n          0xffffffffffffffffffffffffffffffffffffffff\n          and\n          dup2\n          mstore\n          0x20\n          add\n          swap2\n          pop\n          pop\n          mload(0x40)\n          dup1\n          swap2\n          sub\n          swap1\n          return\n            /* \"DelegateExample1.sol\":173:308  function print_address() public  returns(address){... */\n        tag_6:\n            /* \"DelegateExample1.sol\":214:221  address */\n          0x00\n            /* \"DelegateExample1.sol\":254:258  this */\n          address\n            /* \"DelegateExample1.sol\":228:243  returnedAddress */\n          0x00\n          dup1\n            /* \"DelegateExample1.sol\":228:259  returnedAddress = address(this) */\n          0x0100\n          exp\n          dup2\n          sload\n          dup2\n          0xffffffffffffffffffffffffffffffffffffffff\n          mul\n          not\n          and\n          swap1\n          dup4\n          0xffffffffffffffffffffffffffffffffffffffff\n          and\n          mul\n          or\n          swap1\n          sstore\n          pop\n            /* \"DelegateExample1.sol\":271:303  contractAddress(returnedAddress) */\n          0x09a33d4bab4675cb825f2573b9e26b970e379a59fed351ad1d92e1af6291a8ba\n            /* \"DelegateExample1.sol\":287:302  returnedAddress */\n          0x00\n          dup1\n          sload\n          swap1\n          0x0100\n          exp\n          swap1\n          div\n          0xffffffffffffffffffffffffffffffffffffffff\n          and\n            /* \"DelegateExample1.sol\":271:303  contractAddress(returnedAddress) */\n          mload(0x40)\n          dup1\n          dup3\n          0xffffffffffffffffffffffffffffffffffffffff\n          and\n          dup2\n          mstore\n          0x20\n          add\n          swap2\n          pop\n          pop\n          mload(0x40)\n          dup1\n          swap2\n          sub\n          swap1\n          log1\n            /* \"DelegateExample1.sol\":173:308  function print_address() public  returns(address){... */\n          swap1\n          jump\t// out\n            /* \"DelegateExample1.sol\":85:115  address public returnedAddress */\n        tag_8:\n          0x00\n          dup1\n          sload\n          swap1\n          0x0100\n          exp\n          swap1\n          div\n          0xffffffffffffffffffffffffffffffffffffffff\n          and\n          dup2\n          jump\t// out\n\n        auxdata: 0xa26469706673582212208bf9b4d60dc816bedef5a3dbc8ae2a2ccd965e61538361660198b93dae617f7964736f6c634300060c0033\n    }\n}\n",
				"bytecode": {
					"linkReferences": {},
					"object": "60806040526040516100109061007f565b604051809103906000f08015801561002c573d6000803e3d6000fd5b50600160006101000a81548173ffffffffffffffffffffffffffffffffffffffff021916908373ffffffffffffffffffffffffffffffffffffffff16021790555034801561007957600080fd5b5061008c565b6101cf806104f683390190565b61045b8061009b6000396000f3fe608060405234801561001057600080fd5b506004361061004c5760003560e01c80631210bdf3146100515780635daf34c014610085578063bf334aae146100b9578063e628ca87146100ed575b600080fd5b610059610121565b604051808273ffffffffffffffffffffffffffffffffffffffff16815260200191505060405180910390f35b61008d61027f565b604051808273ffffffffffffffffffffffffffffffffffffffff16815260200191505060405180910390f35b6100c16102a5565b604051808273ffffffffffffffffffffffffffffffffffffffff16815260200191505060405180910390f35b6100f5610401565b604051808273ffffffffffffffffffffffffffffffffffffffff16815260200191505060405180910390f35b6000600160009054906101000a900473ffffffffffffffffffffffffffffffffffffffff1673ffffffffffffffffffffffffffffffffffffffff166040516024016040516020818303038152906040527f09220980000000000000000000000000000000000000000000000000000000007bffffffffffffffffffffffffffffffffffffffffffffffffffffffff19166020820180517bffffffffffffffffffffffffffffffffffffffffffffffffffffffff83818316178352505050506040518082805190602001908083835b6020831061021257805182526020820191506020810190506020830392506101ef565b6001836020036101000a0380198251168184511680821785525050505050509050019150506000604051808303816000865af19150503d8060008114610274576040519150601f19603f3d011682016040523d82523d6000602084013e610279565b606091505b50505090565b600160009054906101000a900473ffffffffffffffffffffffffffffffffffffffff1681565b6000600160009054906101000a900473ffffffffffffffffffffffffffffffffffffffff1673ffffffffffffffffffffffffffffffffffffffff166040516024016040516020818303038152906040527f09220980000000000000000000000000000000000000000000000000000000007bffffffffffffffffffffffffffffffffffffffffffffffffffffffff19166020820180517bffffffffffffffffffffffffffffffffffffffffffffffffffffffff83818316178352505050506040518082805190602001908083835b602083106103965780518252602082019150602081019050602083039250610373565b6001836020036101000a038019825116818451168082178552505050505050905001915050600060405180830381855af49150503d80600081146103f6576040519150601f19603f3d011682016040523d82523d6000602084013e6103fb565b606091505b50505090565b60008054906101000a900473ffffffffffffffffffffffffffffffffffffffff168156fea264697066735822122052476149dcb08d3f112112494d3d5cf8e12016dba0cb2c24d092e75cbdee72d864736f6c634300060c0033608060405234801561001057600080fd5b506101af806100206000396000f3fe608060405234801561001057600080fd5b50600436106100365760003560e01c8063092209801461003b578063e628ca871461006f575b600080fd5b6100436100a3565b604051808273ffffffffffffffffffffffffffffffffffffffff16815260200191505060405180910390f35b610077610155565b604051808273ffffffffffffffffffffffffffffffffffffffff16815260200191505060405180910390f35b6000306000806101000a81548173ffffffffffffffffffffffffffffffffffffffff021916908373ffffffffffffffffffffffffffffffffffffffff1602179055507f09a33d4bab4675cb825f2573b9e26b970e379a59fed351ad1d92e1af6291a8ba60008054906101000a900473ffffffffffffffffffffffffffffffffffffffff16604051808273ffffffffffffffffffffffffffffffffffffffff16815260200191505060405180910390a190565b60008054906101000a900473ffffffffffffffffffffffffffffffffffffffff168156fea26469706673582212208bf9b4d60dc816bedef5a3dbc8ae2a2ccd965e61538361660198b93dae617f7964736f6c634300060c0033",
					"opcodes": "PUSH1 0x80 PUSH1 0x40 MSTORE PUSH1 0x40 MLOAD PUSH2 0x10 SWAP1 PUSH2 0x7F JUMP JUMPDEST PUSH1 0x40 MLOAD DUP1 SWAP2 SUB SWAP1 PUSH1 0x0 CREATE DUP1 ISZERO DUP1 ISZERO PUSH2 0x2C JUMPI RETURNDATASIZE PUSH1 0x0 DUP1 RETURNDATACOPY RETURNDATASIZE PUSH1 0x0 REVERT JUMPDEST POP PUSH1 0x1 PUSH1 0x0 PUSH2 0x100 EXP DUP2 SLOAD DUP2 PUSH20 0xFFFFFFFFFFFFFFFFFFFFFFFFFFFFFFFFFFFFFFFF MUL NOT AND SWAP1 DUP4 PUSH20 0xFFFFFFFFFFFFFFFFFFFFFFFFFFFFFFFFFFFFFFFF AND MUL OR SWAP1 SSTORE POP CALLVALUE DUP1 ISZERO PUSH2 0x79 JUMPI PUSH1 0x0 DUP1 REVERT JUMPDEST POP PUSH2 0x8C JUMP JUMPDEST PUSH2 0x1CF DUP1 PUSH2 0x4F6 DUP4 CODECOPY ADD SWAP1 JUMP JUMPDEST PUSH2 0x45B DUP1 PUSH2 0x9B PUSH1 0x0 CODECOPY PUSH1 0x0 RETURN INVALID PUSH1 0x80 PUSH1 0x40 MSTORE CALLVALUE DUP1 ISZERO PUSH2 0x10 JUMPI PUSH1 0x0 DUP1 REVERT JUMPDEST POP PUSH1 0x4 CALLDATASIZE LT PUSH2 0x4C JUMPI PUSH1 0x0 CALLDATALOAD PUSH1 0xE0 SHR DUP1 PUSH4 0x1210BDF3 EQ PUSH2 0x51 JUMPI DUP1 PUSH4 0x5DAF34C0 EQ PUSH2 0x85 JUMPI DUP1 PUSH4 0xBF334AAE EQ PUSH2 0xB9 JUMPI DUP1 PUSH4 0xE628CA87 EQ PUSH2 0xED JUMPI JUMPDEST PUSH1 0x0 DUP1 REVERT JUMPDEST PUSH2 0x59 PUSH2 0x121 JUMP JUMPDEST PUSH1 0x40 MLOAD DUP1 DUP3 PUSH20 0xFFFFFFFFFFFFFFFFFFFFFFFFFFFFFFFFFFFFFFFF AND DUP2 MSTORE PUSH1 0x20 ADD SWAP2 POP POP PUSH1 0x40 MLOAD DUP1 SWAP2 SUB SWAP1 RETURN JUMPDEST PUSH2 0x8D PUSH2 0x27F JUMP JUMPDEST PUSH1 0x40 MLOAD DUP1 DUP3 PUSH20 0xFFFFFFFFFFFFFFFFFFFFFFFFFFFFFFFFFFFFFFFF AND DUP2 MSTORE PUSH1 0x20 ADD SWAP2 POP POP PUSH1 0x40 MLOAD DUP1 SWAP2 SUB SWAP1 RETURN JUMPDEST PUSH2 0xC1 PUSH2 0x2A5 JUMP JUMPDEST PUSH1 0x40 MLOAD DUP1 DUP3 PUSH20 0xFFFFFFFFFFFFFFFFFFFFFFFFFFFFFFFFFFFFFFFF AND DUP2 MSTORE PUSH1 0x20 ADD SWAP2 POP POP PUSH1 0x40 MLOAD DUP1 SWAP2 SUB SWAP1 RETURN JUMPDEST PUSH2 0xF5 PUSH2 0x401 JUMP JUMPDEST PUSH1 0x40 MLOAD DUP1 DUP3 PUSH20 0xFFFFFFFFFFFFFFFFFFFFFFFFFFFFFFFFFFFFFFFF AND DUP2 MSTORE PUSH1 0x20 ADD SWAP2 POP POP PUSH1 0x40 MLOAD DUP1 SWAP2 SUB SWAP1 RETURN JUMPDEST PUSH1 0x0 PUSH1 0x1 PUSH1 0x0 SWAP1 SLOAD SWAP1 PUSH2 0x100 EXP SWAP1 DIV PUSH20 0xFFFFFFFFFFFFFFFFFFFFFFFFFFFFFFFFFFFFFFFF AND PUSH20 0xFFFFFFFFFFFFFFFFFFFFFFFFFFFFFFFFFFFFFFFF AND PUSH1 0x40 MLOAD PUSH1 0x24 ADD PUSH1 0x40 MLOAD PUSH1 0x20 DUP2 DUP4 SUB SUB DUP2 MSTORE SWAP1 PUSH1 0x40 MSTORE PUSH32 0x922098000000000000000000000000000000000000000000000000000000000 PUSH28 0xFFFFFFFFFFFFFFFFFFFFFFFFFFFFFFFFFFFFFFFFFFFFFFFFFFFFFFFF NOT AND PUSH1 0x20 DUP3 ADD DUP1 MLOAD PUSH28 0xFFFFFFFFFFFFFFFFFFFFFFFFFFFFFFFFFFFFFFFFFFFFFFFFFFFFFFFF DUP4 DUP2 DUP4 AND OR DUP4 MSTORE POP POP POP POP PUSH1 0x40 MLOAD DUP1 DUP3 DUP1 MLOAD SWAP1 PUSH1 0x20 ADD SWAP1 DUP1 DUP4 DUP4 JUMPDEST PUSH1 0x20 DUP4 LT PUSH2 0x212 JUMPI DUP1 MLOAD DUP3 MSTORE PUSH1 0x20 DUP3 ADD SWAP2 POP PUSH1 0x20 DUP2 ADD SWAP1 POP PUSH1 0x20 DUP4 SUB SWAP3 POP PUSH2 0x1EF JUMP JUMPDEST PUSH1 0x1 DUP4 PUSH1 0x20 SUB PUSH2 0x100 EXP SUB DUP1 NOT DUP3 MLOAD AND DUP2 DUP5 MLOAD AND DUP1 DUP3 OR DUP6 MSTORE POP POP POP POP POP POP SWAP1 POP ADD SWAP2 POP POP PUSH1 0x0 PUSH1 0x40 MLOAD DUP1 DUP4 SUB DUP2 PUSH1 0x0 DUP7 GAS CALL SWAP2 POP POP RETURNDATASIZE DUP1 PUSH1 0x0 DUP2 EQ PUSH2 0x274 JUMPI PUSH1 0x40 MLOAD SWAP2 POP PUSH1 0x1F NOT PUSH1 0x3F RETURNDATASIZE ADD AND DUP3 ADD PUSH1 0x40 MSTORE RETURNDATASIZE DUP3 MSTORE RETURNDATASIZE PUSH1 0x0 PUSH1 0x20 DUP5 ADD RETURNDATACOPY PUSH2 0x279 JUMP JUMPDEST PUSH1 0x60 SWAP2 POP JUMPDEST POP POP POP SWAP1 JUMP JUMPDEST PUSH1 0x1 PUSH1 0x0 SWAP1 SLOAD SWAP1 PUSH2 0x100 EXP SWAP1 DIV PUSH20 0xFFFFFFFFFFFFFFFFFFFFFFFFFFFFFFFFFFFFFFFF AND DUP2 JUMP JUMPDEST PUSH1 0x0 PUSH1 0x1 PUSH1 0x0 SWAP1 SLOAD SWAP1 PUSH2 0x100 EXP SWAP1 DIV PUSH20 0xFFFFFFFFFFFFFFFFFFFFFFFFFFFFFFFFFFFFFFFF AND PUSH20 0xFFFFFFFFFFFFFFFFFFFFFFFFFFFFFFFFFFFFFFFF AND PUSH1 0x40 MLOAD PUSH1 0x24 ADD PUSH1 0x40 MLOAD PUSH1 0x20 DUP2 DUP4 SUB SUB DUP2 MSTORE SWAP1 PUSH1 0x40 MSTORE PUSH32 0x922098000000000000000000000000000000000000000000000000000000000 PUSH28 0xFFFFFFFFFFFFFFFFFFFFFFFFFFFFFFFFFFFFFFFFFFFFFFFFFFFFFFFF NOT AND PUSH1 0x20 DUP3 ADD DUP1 MLOAD PUSH28 0xFFFFFFFFFFFFFFFFFFFFFFFFFFFFFFFFFFFFFFFFFFFFFFFFFFFFFFFF DUP4 DUP2 DUP4 AND OR DUP4 MSTORE POP POP POP POP PUSH1 0x40 MLOAD DUP1 DUP3 DUP1 MLOAD SWAP1 PUSH1 0x20 ADD SWAP1 DUP1 DUP4 DUP4 JUMPDEST PUSH1 0x20 DUP4 LT PUSH2 0x396 JUMPI DUP1 MLOAD DUP3 MSTORE PUSH1 0x20 DUP3 ADD SWAP2 POP PUSH1 0x20 DUP2 ADD SWAP1 POP PUSH1 0x20 DUP4 SUB SWAP3 POP PUSH2 0x373 JUMP JUMPDEST PUSH1 0x1 DUP4 PUSH1 0x20 SUB PUSH2 0x100 EXP SUB DUP1 NOT DUP3 MLOAD AND DUP2 DUP5 MLOAD AND DUP1 DUP3 OR DUP6 MSTORE POP POP POP POP POP POP SWAP1 POP ADD SWAP2 POP POP PUSH1 0x0 PUSH1 0x40 MLOAD DUP1 DUP4 SUB DUP2 DUP6 GAS DELEGATECALL SWAP2 POP POP RETURNDATASIZE DUP1 PUSH1 0x0 DUP2 EQ PUSH2 0x3F6 JUMPI PUSH1 0x40 MLOAD SWAP2 POP PUSH1 0x1F NOT PUSH1 0x3F RETURNDATASIZE ADD AND DUP3 ADD PUSH1 0x40 MSTORE RETURNDATASIZE DUP3 MSTORE RETURNDATASIZE PUSH1 0x0 PUSH1 0x20 DUP5 ADD RETURNDATACOPY PUSH2 0x3FB JUMP JUMPDEST PUSH1 0x60 SWAP2 POP JUMPDEST POP POP POP SWAP1 JUMP JUMPDEST PUSH1 0x0 DUP1 SLOAD SWAP1 PUSH2 0x100 EXP SWAP1 DIV PUSH20 0xFFFFFFFFFFFFFFFFFFFFFFFFFFFFFFFFFFFFFFFF AND DUP2 JUMP INVALID LOG2 PUSH5 0x6970667358 0x22 SLT KECCAK256 MSTORE SELFBALANCE PUSH2 0x49DC 0xB0 DUP14 EXTCODEHASH GT 0x21 SLT 0x49 0x4D RETURNDATASIZE 0x5C 0xF8 0xE1 KECCAK256 AND 0xDB LOG0 0xCB 0x2C 0x24 0xD0 SWAP3 0xE7 0x5C 0xBD 0xEE PUSH19 0xD864736F6C634300060C003360806040523480 ISZERO PUSH2 0x10 JUMPI PUSH1 0x0 DUP1 REVERT JUMPDEST POP PUSH2 0x1AF DUP1 PUSH2 0x20 PUSH1 0x0 CODECOPY PUSH1 0x0 RETURN INVALID PUSH1 0x80 PUSH1 0x40 MSTORE CALLVALUE DUP1 ISZERO PUSH2 0x10 JUMPI PUSH1 0x0 DUP1 REVERT JUMPDEST POP PUSH1 0x4 CALLDATASIZE LT PUSH2 0x36 JUMPI PUSH1 0x0 CALLDATALOAD PUSH1 0xE0 SHR DUP1 PUSH4 0x9220980 EQ PUSH2 0x3B JUMPI DUP1 PUSH4 0xE628CA87 EQ PUSH2 0x6F JUMPI JUMPDEST PUSH1 0x0 DUP1 REVERT JUMPDEST PUSH2 0x43 PUSH2 0xA3 JUMP JUMPDEST PUSH1 0x40 MLOAD DUP1 DUP3 PUSH20 0xFFFFFFFFFFFFFFFFFFFFFFFFFFFFFFFFFFFFFFFF AND DUP2 MSTORE PUSH1 0x20 ADD SWAP2 POP POP PUSH1 0x40 MLOAD DUP1 SWAP2 SUB SWAP1 RETURN JUMPDEST PUSH2 0x77 PUSH2 0x155 JUMP JUMPDEST PUSH1 0x40 MLOAD DUP1 DUP3 PUSH20 0xFFFFFFFFFFFFFFFFFFFFFFFFFFFFFFFFFFFFFFFF AND DUP2 MSTORE PUSH1 0x20 ADD SWAP2 POP POP PUSH1 0x40 MLOAD DUP1 SWAP2 SUB SWAP1 RETURN JUMPDEST PUSH1 0x0 ADDRESS PUSH1 0x0 DUP1 PUSH2 0x100 EXP DUP2 SLOAD DUP2 PUSH20 0xFFFFFFFFFFFFFFFFFFFFFFFFFFFFFFFFFFFFFFFF MUL NOT AND SWAP1 DUP4 PUSH20 0xFFFFFFFFFFFFFFFFFFFFFFFFFFFFFFFFFFFFFFFF AND MUL OR SWAP1 SSTORE POP PUSH32 0x9A33D4BAB4675CB825F2573B9E26B970E379A59FED351AD1D92E1AF6291A8BA PUSH1 0x0 DUP1 SLOAD SWAP1 PUSH2 0x100 EXP SWAP1 DIV PUSH20 0xFFFFFFFFFFFFFFFFFFFFFFFFFFFFFFFFFFFFFFFF AND PUSH1 0x40 MLOAD DUP1 DUP3 PUSH20 0xFFFFFFFFFFFFFFFFFFFFFFFFFFFFFFFFFFFFFFFF AND DUP2 MSTORE PUSH1 0x20 ADD SWAP2 POP POP PUSH1 0x40 MLOAD DUP1 SWAP2 SUB SWAP1 LOG1 SWAP1 JUMP JUMPDEST PUSH1 0x0 DUP1 SLOAD SWAP1 PUSH2 0x100 EXP SWAP1 DIV PUSH20 0xFFFFFFFFFFFFFFFFFFFFFFFFFFFFFFFFFFFFFFFF AND DUP2 JUMP INVALID LOG2 PUSH5 0x6970667358 0x22 SLT KECCAK256 DUP12 0xF9 0xB4 0xD6 0xD 0xC8 AND 0xBE 0xDE CREATE2 LOG3 0xDB 0xC8 0xAE 0x2A 0x2C 0xCD SWAP7 0x5E PUSH2 0x5383 PUSH2 0x6601 SWAP9 0xB9 RETURNDATASIZE 0xAE PUSH2 0x7F79 PUSH5 0x736F6C6343 STOP MOD 0xC STOP CALLER "
				},
				"gasEstimates": {
					"creation": {
						"codeDepositCost": "223000",
						"executionCost": "infinite",
						"totalCost": "infinite"
					},
					"external": {
						"logic_pointer()": "1047",
						"print_my_call_address()": "infinite",
						"print_my_delgate_address()": "infinite",
						"returnedAddress()": "1088"
					}
				},
				"methodIdentifiers": {
					"logic_pointer()": "5daf34c0",
					"print_my_call_address()": "1210bdf3",
					"print_my_delgate_address()": "bf334aae",
					"returnedAddress()": "e628ca87"
				}
			},
			"storageLayout": {
				"storage": [
					{
						"astId": 27,
						"contract": "DelegateExample1.sol:CallingContract",
						"label": "returnedAddress",
						"offset": 0,
						"slot": "0",
						"type": "t_address"
					},
					{
						"astId": 35,
						"contract": "DelegateExample1.sol:CallingContract",
						"label": "logic_pointer",
						"offset": 0,
						"slot": "1",
						"type": "t_address"
					}
				],
				"types": {
					"t_address": {
						"encoding": "inplace",
						"label": "address",
						"numberOfBytes": "20"
					}
				}
			},
			"userdoc": {
				"kind": "user",
				"methods": {},
				"version": 1
			}
		}
	}
}