{
	"data": {
		"bytecode": {
			"linkReferences": {},
			"object": "608060405234801561001057600080fd5b506101af806100206000396000f3fe608060405234801561001057600080fd5b50600436106100365760003560e01c8063092209801461003b578063e628ca871461006f575b600080fd5b6100436100a3565b604051808273ffffffffffffffffffffffffffffffffffffffff16815260200191505060405180910390f35b610077610155565b604051808273ffffffffffffffffffffffffffffffffffffffff16815260200191505060405180910390f35b6000306000806101000a81548173ffffffffffffffffffffffffffffffffffffffff021916908373ffffffffffffffffffffffffffffffffffffffff1602179055507f09a33d4bab4675cb825f2573b9e26b970e379a59fed351ad1d92e1af6291a8ba60008054906101000a900473ffffffffffffffffffffffffffffffffffffffff16604051808273ffffffffffffffffffffffffffffffffffffffff16815260200191505060405180910390a190565b60008054906101000a900473ffffffffffffffffffffffffffffffffffffffff168156fea264697066735822122018aab743b2a934971fa69214c05f4129ee732f3d74f6ff17bdade85d372560a764736f6c634300060c0033",
			"opcodes": "PUSH1 0x80 PUSH1 0x40 MSTORE CALLVALUE DUP1 ISZERO PUSH2 0x10 JUMPI PUSH1 0x0 DUP1 REVERT JUMPDEST POP PUSH2 0x1AF DUP1 PUSH2 0x20 PUSH1 0x0 CODECOPY PUSH1 0x0 RETURN INVALID PUSH1 0x80 PUSH1 0x40 MSTORE CALLVALUE DUP1 ISZERO PUSH2 0x10 JUMPI PUSH1 0x0 DUP1 REVERT JUMPDEST POP PUSH1 0x4 CALLDATASIZE LT PUSH2 0x36 JUMPI PUSH1 0x0 CALLDATALOAD PUSH1 0xE0 SHR DUP1 PUSH4 0x9220980 EQ PUSH2 0x3B JUMPI DUP1 PUSH4 0xE628CA87 EQ PUSH2 0x6F JUMPI JUMPDEST PUSH1 0x0 DUP1 REVERT JUMPDEST PUSH2 0x43 PUSH2 0xA3 JUMP JUMPDEST PUSH1 0x40 MLOAD DUP1 DUP3 PUSH20 0xFFFFFFFFFFFFFFFFFFFFFFFFFFFFFFFFFFFFFFFF AND DUP2 MSTORE PUSH1 0x20 ADD SWAP2 POP POP PUSH1 0x40 MLOAD DUP1 SWAP2 SUB SWAP1 RETURN JUMPDEST PUSH2 0x77 PUSH2 0x155 JUMP JUMPDEST PUSH1 0x40 MLOAD DUP1 DUP3 PUSH20 0xFFFFFFFFFFFFFFFFFFFFFFFFFFFFFFFFFFFFFFFF AND DUP2 MSTORE PUSH1 0x20 ADD SWAP2 POP POP PUSH1 0x40 MLOAD DUP1 SWAP2 SUB SWAP1 RETURN JUMPDEST PUSH1 0x0 ADDRESS PUSH1 0x0 DUP1 PUSH2 0x100 EXP DUP2 SLOAD DUP2 PUSH20 0xFFFFFFFFFFFFFFFFFFFFFFFFFFFFFFFFFFFFFFFF MUL NOT AND SWAP1 DUP4 PUSH20 0xFFFFFFFFFFFFFFFFFFFFFFFFFFFFFFFFFFFFFFFF AND MUL OR SWAP1 SSTORE POP PUSH32 0x9A33D4BAB4675CB825F2573B9E26B970E379A59FED351AD1D92E1AF6291A8BA PUSH1 0x0 DUP1 SLOAD SWAP1 PUSH2 0x100 EXP SWAP1 DIV PUSH20 0xFFFFFFFFFFFFFFFFFFFFFFFFFFFFFFFFFFFFFFFF AND PUSH1 0x40 MLOAD DUP1 DUP3 PUSH20 0xFFFFFFFFFFFFFFFFFFFFFFFFFFFFFFFFFFFFFFFF AND DUP2 MSTORE PUSH1 0x20 ADD SWAP2 POP POP PUSH1 0x40 MLOAD DUP1 SWAP2 SUB SWAP1 LOG1 SWAP1 JUMP JUMPDEST PUSH1 0x0 DUP1 SLOAD SWAP1 PUSH2 0x100 EXP SWAP1 DIV PUSH20 0xFFFFFFFFFFFFFFFFFFFFFFFFFFFFFFFFFFFFFFFF AND DUP2 JUMP INVALID LOG2 PUSH5 0x6970667358 0x22 SLT KECCAK256 XOR 0xAA 0xB7 NUMBER 0xB2 0xA9 CALLVALUE SWAP8 0x1F 0xA6 SWAP3 EQ 0xC0 0x5F COINBASE 0x29 0xEE PUSH20 0x2F3D74F6FF17BDADE85D372560A764736F6C6343 STOP MOD 0xC STOP CALLER "
		},
		"gasEstimates": {
			"creation": {
				"codeDepositCost": "86200",
				"executionCost": "135",
				"totalCost": "86335"
			},
			"external": {
				"print_address()": "22955",
				"returnedAddress()": "1044"
			}
		},
		"methodIdentifiers": {
			"print_address()": "09220980",
			"returnedAddress()": "e628ca87"
		}
	},
	"abi": [
		{
			"anonymous": false,
			"inputs": [
				{
					"indexed": false,
					"internalType": "address",
					"name": "returnedAddress",
					"type": "address"
				}
			],
			"name": "contractAddress",
			"type": "event"
		},
		{
			"inputs": [],
			"name": "print_address",
			"outputs": [
				{
					"internalType": "address",
					"name": "",
					"type": "address"
				}
			],
			"stateMutability": "nonpayable",
			"type": "function"
		},
		{
			"inputs": [],
			"name": "returnedAddress",
			"outputs": [
				{
					"internalType": "address",
					"name": "",
					"type": "address"
				}
			],
			"stateMutability": "view",
			"type": "function"
		}
	]
}